{
  "_format": "hh-sol-artifact-1",
  "contractName": "Hepier",
  "sourceName": "contracts/hepier.sol",
  "abi": [
    {
      "inputs": [],
      "stateMutability": "nonpayable",
      "type": "constructor"
    },
    {
      "anonymous": false,
      "inputs": [
        {
          "indexed": true,
          "internalType": "address",
          "name": "account",
          "type": "address"
        },
        {
          "indexed": true,
          "internalType": "address",
          "name": "operator",
          "type": "address"
        },
        {
          "indexed": false,
          "internalType": "bool",
          "name": "approved",
          "type": "bool"
        }
      ],
      "name": "ApprovalForAll",
      "type": "event"
    },
    {
      "anonymous": false,
      "inputs": [
        {
          "indexed": false,
          "internalType": "address",
          "name": "operator",
          "type": "address"
        }
      ],
      "name": "NewOperatorAddress",
      "type": "event"
    },
    {
      "anonymous": false,
      "inputs": [
        {
          "indexed": true,
          "internalType": "address",
          "name": "previousOwner",
          "type": "address"
        },
        {
          "indexed": true,
          "internalType": "address",
          "name": "newOwner",
          "type": "address"
        }
      ],
      "name": "OwnershipTransferred",
      "type": "event"
    },
    {
      "anonymous": false,
      "inputs": [
        {
          "indexed": true,
          "internalType": "address",
          "name": "operator",
          "type": "address"
        },
        {
          "indexed": true,
          "internalType": "address",
          "name": "from",
          "type": "address"
        },
        {
          "indexed": true,
          "internalType": "address",
          "name": "to",
          "type": "address"
        },
        {
          "indexed": false,
          "internalType": "uint256[]",
          "name": "ids",
          "type": "uint256[]"
        },
        {
          "indexed": false,
          "internalType": "uint256[]",
          "name": "values",
          "type": "uint256[]"
        }
      ],
      "name": "TransferBatch",
      "type": "event"
    },
    {
      "anonymous": false,
      "inputs": [
        {
          "indexed": true,
          "internalType": "address",
          "name": "operator",
          "type": "address"
        },
        {
          "indexed": true,
          "internalType": "address",
          "name": "from",
          "type": "address"
        },
        {
          "indexed": true,
          "internalType": "address",
          "name": "to",
          "type": "address"
        },
        {
          "indexed": false,
          "internalType": "uint256",
          "name": "id",
          "type": "uint256"
        },
        {
          "indexed": false,
          "internalType": "uint256",
          "name": "value",
          "type": "uint256"
        }
      ],
      "name": "TransferSingle",
      "type": "event"
    },
    {
      "anonymous": false,
      "inputs": [
        {
          "indexed": false,
          "internalType": "string",
          "name": "value",
          "type": "string"
        },
        {
          "indexed": true,
          "internalType": "uint256",
          "name": "id",
          "type": "uint256"
        }
      ],
      "name": "URI",
      "type": "event"
    },
    {
      "inputs": [
        {
          "internalType": "address",
          "name": "account",
          "type": "address"
        },
        {
          "internalType": "uint256",
          "name": "id",
          "type": "uint256"
        }
      ],
      "name": "balanceOf",
      "outputs": [
        {
          "internalType": "uint256",
          "name": "",
          "type": "uint256"
        }
      ],
      "stateMutability": "view",
      "type": "function"
    },
    {
      "inputs": [
        {
          "internalType": "address[]",
          "name": "accounts",
          "type": "address[]"
        },
        {
          "internalType": "uint256[]",
          "name": "ids",
          "type": "uint256[]"
        }
      ],
      "name": "balanceOfBatch",
      "outputs": [
        {
          "internalType": "uint256[]",
          "name": "",
          "type": "uint256[]"
        }
      ],
      "stateMutability": "view",
      "type": "function"
    },
    {
      "inputs": [
        {
          "internalType": "address",
          "name": "account",
          "type": "address"
        },
        {
          "internalType": "uint256",
          "name": "id",
          "type": "uint256"
        },
        {
          "internalType": "uint256",
          "name": "value",
          "type": "uint256"
        }
      ],
      "name": "burn",
      "outputs": [],
      "stateMutability": "nonpayable",
      "type": "function"
    },
    {
      "inputs": [
        {
          "internalType": "address",
          "name": "account",
          "type": "address"
        },
        {
          "internalType": "uint256[]",
          "name": "ids",
          "type": "uint256[]"
        },
        {
          "internalType": "uint256[]",
          "name": "values",
          "type": "uint256[]"
        }
      ],
      "name": "burnBatch",
      "outputs": [],
      "stateMutability": "nonpayable",
      "type": "function"
    },
    {
      "inputs": [
        {
          "internalType": "address",
          "name": "account",
          "type": "address"
        },
        {
          "internalType": "address",
          "name": "operator",
          "type": "address"
        }
      ],
      "name": "isApprovedForAll",
      "outputs": [
        {
          "internalType": "bool",
          "name": "",
          "type": "bool"
        }
      ],
      "stateMutability": "view",
      "type": "function"
    },
    {
      "inputs": [
        {
          "internalType": "uint256",
          "name": "amount",
          "type": "uint256"
        }
      ],
      "name": "mint",
      "outputs": [],
      "stateMutability": "nonpayable",
      "type": "function"
    },
    {
      "inputs": [
        {
          "internalType": "uint256",
          "name": "amount",
          "type": "uint256"
        },
        {
          "internalType": "string",
          "name": "newuri",
          "type": "string"
        }
      ],
      "name": "mintAndSetUri",
      "outputs": [],
      "stateMutability": "nonpayable",
      "type": "function"
    },
    {
      "inputs": [
        {
          "internalType": "uint256[]",
          "name": "ids",
          "type": "uint256[]"
        },
        {
          "internalType": "uint256[]",
          "name": "amounts",
          "type": "uint256[]"
        }
      ],
      "name": "mintBatch",
      "outputs": [],
      "stateMutability": "nonpayable",
      "type": "function"
    },
    {
      "inputs": [
        {
          "internalType": "address[]",
          "name": "to",
          "type": "address[]"
        },
        {
          "internalType": "uint256",
          "name": "id",
          "type": "uint256"
        },
        {
          "internalType": "uint256",
          "name": "amount",
          "type": "uint256"
        }
      ],
      "name": "multiTransfer",
      "outputs": [],
      "stateMutability": "nonpayable",
      "type": "function"
    },
    {
      "inputs": [],
      "name": "name",
      "outputs": [
        {
          "internalType": "string",
          "name": "",
          "type": "string"
        }
      ],
      "stateMutability": "view",
      "type": "function"
    },
    {
      "inputs": [],
      "name": "operatorAddress",
      "outputs": [
        {
          "internalType": "address",
          "name": "",
          "type": "address"
        }
      ],
      "stateMutability": "view",
      "type": "function"
    },
    {
      "inputs": [],
      "name": "owner",
      "outputs": [
        {
          "internalType": "address",
          "name": "",
          "type": "address"
        }
      ],
      "stateMutability": "view",
      "type": "function"
    },
    {
      "inputs": [],
      "name": "renounceOwnership",
      "outputs": [],
      "stateMutability": "nonpayable",
      "type": "function"
    },
    {
      "inputs": [
        {
          "internalType": "address",
          "name": "from",
          "type": "address"
        },
        {
          "internalType": "address",
          "name": "to",
          "type": "address"
        },
        {
          "internalType": "uint256[]",
          "name": "ids",
          "type": "uint256[]"
        },
        {
          "internalType": "uint256[]",
          "name": "amounts",
          "type": "uint256[]"
        },
        {
          "internalType": "bytes",
          "name": "data",
          "type": "bytes"
        }
      ],
      "name": "safeBatchTransferFrom",
      "outputs": [],
      "stateMutability": "nonpayable",
      "type": "function"
    },
    {
      "inputs": [
        {
          "internalType": "address",
          "name": "from",
          "type": "address"
        },
        {
          "internalType": "address",
          "name": "to",
          "type": "address"
        },
        {
          "internalType": "uint256",
          "name": "id",
          "type": "uint256"
        },
        {
          "internalType": "uint256",
          "name": "amount",
          "type": "uint256"
        },
        {
          "internalType": "bytes",
          "name": "data",
          "type": "bytes"
        }
      ],
      "name": "safeTransferFrom",
      "outputs": [],
      "stateMutability": "nonpayable",
      "type": "function"
    },
    {
      "inputs": [
        {
          "internalType": "address",
          "name": "operator",
          "type": "address"
        },
        {
          "internalType": "bool",
          "name": "approved",
          "type": "bool"
        }
      ],
      "name": "setApprovalForAll",
      "outputs": [],
      "stateMutability": "nonpayable",
      "type": "function"
    },
    {
      "inputs": [
        {
          "internalType": "address",
          "name": "_operatorAddress",
          "type": "address"
        }
      ],
      "name": "setOperator",
      "outputs": [],
      "stateMutability": "nonpayable",
      "type": "function"
    },
    {
      "inputs": [
        {
          "internalType": "string",
          "name": "newuri",
          "type": "string"
        }
      ],
      "name": "setURI",
      "outputs": [],
      "stateMutability": "nonpayable",
      "type": "function"
    },
    {
      "inputs": [
        {
          "internalType": "bytes4",
          "name": "interfaceId",
          "type": "bytes4"
        }
      ],
      "name": "supportsInterface",
      "outputs": [
        {
          "internalType": "bool",
          "name": "",
          "type": "bool"
        }
      ],
      "stateMutability": "view",
      "type": "function"
    },
    {
      "inputs": [
        {
          "internalType": "uint256",
          "name": "",
          "type": "uint256"
        }
      ],
      "name": "tokenURI",
      "outputs": [
        {
          "internalType": "string",
          "name": "",
          "type": "string"
        }
      ],
      "stateMutability": "view",
      "type": "function"
    },
    {
      "inputs": [
        {
          "internalType": "address",
          "name": "to",
          "type": "address"
        },
        {
          "internalType": "uint256",
          "name": "id",
          "type": "uint256"
        },
        {
          "internalType": "uint256",
          "name": "amount",
          "type": "uint256"
        }
      ],
      "name": "transfer",
      "outputs": [],
      "stateMutability": "nonpayable",
      "type": "function"
    },
    {
      "inputs": [
        {
          "internalType": "address",
          "name": "newOwner",
          "type": "address"
        }
      ],
      "name": "transferOwnership",
      "outputs": [],
      "stateMutability": "nonpayable",
      "type": "function"
    },
    {
      "inputs": [
        {
          "internalType": "uint256",
          "name": "_id",
          "type": "uint256"
        }
      ],
      "name": "uri",
      "outputs": [
        {
          "internalType": "string",
          "name": "",
          "type": "string"
        }
      ],
      "stateMutability": "view",
      "type": "function"
    }
  ],
  "bytecode": "0x60806040526040518060400160405280601181526020017f48657069657220436f6c6c656374696f6e0000000000000000000000000000008152506005908051906020019062000051929190620001b8565b503480156200005f57600080fd5b506040518060400160405280600381526020017f4845500000000000000000000000000000000000000000000000000000000000815250620000a781620000ce60201b60201c565b50620000c8620000bc620000ea60201b60201c565b620000f260201b60201c565b620002cd565b8060029080519060200190620000e6929190620001b8565b5050565b600033905090565b6000600360009054906101000a900473ffffffffffffffffffffffffffffffffffffffff16905081600360006101000a81548173ffffffffffffffffffffffffffffffffffffffff021916908373ffffffffffffffffffffffffffffffffffffffff1602179055508173ffffffffffffffffffffffffffffffffffffffff168173ffffffffffffffffffffffffffffffffffffffff167f8be0079c531659141344cd1fd0a4f28419497f9722a3daafe3b4186f6b6457e060405160405180910390a35050565b828054620001c69062000268565b90600052602060002090601f016020900481019282620001ea576000855562000236565b82601f106200020557805160ff191683800117855562000236565b8280016001018555821562000236579182015b828111156200023557825182559160200191906001019062000218565b5b50905062000245919062000249565b5090565b5b80821115620002645760008160009055506001016200024a565b5090565b600060028204905060018216806200028157607f821691505b602082108114156200029857620002976200029e565b5b50919050565b7f4e487b7100000000000000000000000000000000000000000000000000000000600052602260045260246000fd5b61471380620002dd6000396000f3fe608060405234801561001057600080fd5b506004361061014c5760003560e01c80636b20c454116100c3578063c87b56dd1161007c578063c87b56dd14610371578063d351cfdc146103a1578063e985e9c5146103bd578063f242432a146103ed578063f2fde38b14610409578063f5298aca146104255761014c565b80636b20c454146102d9578063715018a6146102f55780638da5cb5b146102ff578063a0712d681461031d578063a22cb46514610339578063b3ab15fb146103555761014c565b80630e89341c116101155780630e89341c146102075780630f83c74514610237578063127effb2146102535780631b5e2b59146102715780632eb2c2d61461028d5780634e1273f4146102a95761014c565b8062fdd58e1461015157806301ffc9a71461018157806302fe5305146101b157806306fdde03146101cd578063095bcdb6146101eb575b600080fd5b61016b600480360381019061016691906131d8565b610441565b6040516101789190613c8a565b60405180910390f35b61019b600480360381019061019691906133a7565b61050a565b6040516101a891906139cd565b60405180910390f35b6101cb60048036038101906101c691906133f9565b6105ec565b005b6101d5610722565b6040516101e291906139e8565b60405180910390f35b61020560048036038101906102009190613214565b6107b0565b005b610221600480360381019061021c919061343a565b610867565b60405161022e91906139e8565b60405180910390f35b610251600480360381019061024c9190613463565b61090c565b005b61025b610a40565b6040516102689190613897565b60405180910390f35b61028b60048036038101906102869190613263565b610a66565b005b6102a760048036038101906102a29190612fcf565b610bdc565b005b6102c360048036038101906102be91906132cf565b610c7d565b6040516102d09190613974565b60405180910390f35b6102f360048036038101906102ee919061311d565b610e2e565b005b6102fd610ecb565b005b610307610edf565b6040516103149190613897565b60405180910390f35b6103376004803603810190610332919061343a565b610f09565b005b610353600480360381019061034e919061319c565b610fc6565b005b61036f600480360381019061036a9190612f6a565b610fdc565b005b61038b6004803603810190610386919061343a565b6110cf565b60405161039891906139e8565b60405180910390f35b6103bb60048036038101906103b6919061333b565b61116f565b005b6103d760048036038101906103d29190612f93565b61121e565b6040516103e491906139cd565b60405180910390f35b6104076004803603810190610402919061308e565b6112b2565b005b610423600480360381019061041e9190612f6a565b611353565b005b61043f600480360381019061043a9190613214565b6113d7565b005b60008073ffffffffffffffffffffffffffffffffffffffff168373ffffffffffffffffffffffffffffffffffffffff1614156104b2576040517f08c379a00000000000000000000000000000000000000000000000000000000081526004016104a990613aca565b60405180910390fd5b60008083815260200190815260200160002060008473ffffffffffffffffffffffffffffffffffffffff1673ffffffffffffffffffffffffffffffffffffffff16815260200190815260200160002054905092915050565b60007fd9b67a26000000000000000000000000000000000000000000000000000000007bffffffffffffffffffffffffffffffffffffffffffffffffffffffff1916827bffffffffffffffffffffffffffffffffffffffffffffffffffffffff191614806105d557507f0e89341c000000000000000000000000000000000000000000000000000000007bffffffffffffffffffffffffffffffffffffffffffffffffffffffff1916827bffffffffffffffffffffffffffffffffffffffffffffffffffffffff1916145b806105e557506105e482611474565b5b9050919050565b600660009054906101000a900473ffffffffffffffffffffffffffffffffffffffff1673ffffffffffffffffffffffffffffffffffffffff163373ffffffffffffffffffffffffffffffffffffffff161461067c576040517f08c379a000000000000000000000000000000000000000000000000000000000815260040161067390613c6a565b60405180910390fd5b600061068860046114de565b905060006007600083815260200190815260200160002080546106aa90613f2a565b9050146106ec576040517f08c379a00000000000000000000000000000000000000000000000000000000081526004016106e390613a8a565b60405180910390fd5b81600760008381526020019081526020016000209080519060200190610713929190612c18565b5061071e60046114ec565b5050565b6005805461072f90613f2a565b80601f016020809104026020016040519081016040528092919081815260200182805461075b90613f2a565b80156107a85780601f1061077d576101008083540402835291602001916107a8565b820191906000526020600020905b81548152906001019060200180831161078b57829003601f168201915b505050505081565b600660009054906101000a900473ffffffffffffffffffffffffffffffffffffffff1673ffffffffffffffffffffffffffffffffffffffff163373ffffffffffffffffffffffffffffffffffffffff1614610840576040517f08c379a000000000000000000000000000000000000000000000000000000000815260040161083790613c6a565b60405180910390fd5b600033905061086181858585604051806020016040528060008152506112b2565b50505050565b606060076000838152602001908152602001600020805461088790613f2a565b80601f01602080910402602001604051908101604052809291908181526020018280546108b390613f2a565b80156109005780601f106108d557610100808354040283529160200191610900565b820191906000526020600020905b8154815290600101906020018083116108e357829003601f168201915b50505050509050919050565b600660009054906101000a900473ffffffffffffffffffffffffffffffffffffffff1673ffffffffffffffffffffffffffffffffffffffff163373ffffffffffffffffffffffffffffffffffffffff161461099c576040517f08c379a000000000000000000000000000000000000000000000000000000000815260040161099390613c6a565b60405180910390fd5b600082116109df576040517f08c379a00000000000000000000000000000000000000000000000000000000081526004016109d690613c0a565b60405180910390fd5b6109e882610f09565b6000819050600081511415610a32576040517f08c379a0000000000000000000000000000000000000000000000000000000008152600401610a2990613baa565b60405180910390fd5b610a3b826105ec565b505050565b600660009054906101000a900473ffffffffffffffffffffffffffffffffffffffff1681565b600660009054906101000a900473ffffffffffffffffffffffffffffffffffffffff1673ffffffffffffffffffffffffffffffffffffffff163373ffffffffffffffffffffffffffffffffffffffff1614610af6576040517f08c379a0000000000000000000000000000000000000000000000000000000008152600401610aed90613c6a565b60405180910390fd5b83839050610b043384610441565b1015610b45576040517f08c379a0000000000000000000000000000000000000000000000000000000008152600401610b3c90613b0a565b60405180910390fd5b600033905060005b85859050811015610bd457610bc182878784818110610b95577f4e487b7100000000000000000000000000000000000000000000000000000000600052603260045260246000fd5b9050602002016020810190610baa9190612f6a565b8686604051806020016040528060008152506112b2565b8080610bcc90613f8d565b915050610b4d565b505050505050565b610be4611502565b73ffffffffffffffffffffffffffffffffffffffff168573ffffffffffffffffffffffffffffffffffffffff161480610c2a5750610c2985610c24611502565b61121e565b5b610c69576040517f08c379a0000000000000000000000000000000000000000000000000000000008152600401610c6090613a2a565b60405180910390fd5b610c76858585858561150a565b5050505050565b60608151835114610cc3576040517f08c379a0000000000000000000000000000000000000000000000000000000008152600401610cba90613bea565b60405180910390fd5b6000835167ffffffffffffffff811115610d06577f4e487b7100000000000000000000000000000000000000000000000000000000600052604160045260246000fd5b604051908082528060200260200182016040528015610d345781602001602082028036833780820191505090505b50905060005b8451811015610e2357610dcd858281518110610d7f577f4e487b7100000000000000000000000000000000000000000000000000000000600052603260045260246000fd5b6020026020010151858381518110610dc0577f4e487b7100000000000000000000000000000000000000000000000000000000600052603260045260246000fd5b6020026020010151610441565b828281518110610e06577f4e487b7100000000000000000000000000000000000000000000000000000000600052603260045260246000fd5b60200260200101818152505080610e1c90613f8d565b9050610d3a565b508091505092915050565b610e36611502565b73ffffffffffffffffffffffffffffffffffffffff168373ffffffffffffffffffffffffffffffffffffffff161480610e7c5750610e7b83610e76611502565b61121e565b5b610ebb576040517f08c379a0000000000000000000000000000000000000000000000000000000008152600401610eb290613a2a565b60405180910390fd5b610ec6838383611878565b505050565b610ed3611b93565b610edd6000611c11565b565b6000600360009054906101000a900473ffffffffffffffffffffffffffffffffffffffff16905090565b600660009054906101000a900473ffffffffffffffffffffffffffffffffffffffff1673ffffffffffffffffffffffffffffffffffffffff163373ffffffffffffffffffffffffffffffffffffffff1614610f99576040517f08c379a0000000000000000000000000000000000000000000000000000000008152600401610f9090613c6a565b60405180910390fd5b6000610fa560046114de565b9050610fc233828460405180602001604052806000815250611cd7565b5050565b610fd8610fd1611502565b8383611e88565b5050565b610fe4611b93565b600073ffffffffffffffffffffffffffffffffffffffff168173ffffffffffffffffffffffffffffffffffffffff161415611054576040517f08c379a000000000000000000000000000000000000000000000000000000000815260040161104b90613aea565b60405180910390fd5b80600660006101000a81548173ffffffffffffffffffffffffffffffffffffffff021916908373ffffffffffffffffffffffffffffffffffffffff1602179055507fc47d127c07bdd56c5ccba00463ce3bd3c1bca71b4670eea6e5d0c02e4aa156e2816040516110c49190613897565b60405180910390a150565b600760205280600052604060002060009150905080546110ee90613f2a565b80601f016020809104026020016040519081016040528092919081815260200182805461111a90613f2a565b80156111675780601f1061113c57610100808354040283529160200191611167565b820191906000526020600020905b81548152906001019060200180831161114a57829003601f168201915b505050505081565b600660009054906101000a900473ffffffffffffffffffffffffffffffffffffffff1673ffffffffffffffffffffffffffffffffffffffff163373ffffffffffffffffffffffffffffffffffffffff16146111ff576040517f08c379a00000000000000000000000000000000000000000000000000000000081526004016111f690613c6a565b60405180910390fd5b61121a33838360405180602001604052806000815250611ff5565b5050565b6000600160008473ffffffffffffffffffffffffffffffffffffffff1673ffffffffffffffffffffffffffffffffffffffff16815260200190815260200160002060008373ffffffffffffffffffffffffffffffffffffffff1673ffffffffffffffffffffffffffffffffffffffff16815260200190815260200160002060009054906101000a900460ff16905092915050565b6112ba611502565b73ffffffffffffffffffffffffffffffffffffffff168573ffffffffffffffffffffffffffffffffffffffff16148061130057506112ff856112fa611502565b61121e565b5b61133f576040517f08c379a000000000000000000000000000000000000000000000000000000000815260040161133690613a2a565b60405180910390fd5b61134c858585858561226e565b5050505050565b61135b611b93565b600073ffffffffffffffffffffffffffffffffffffffff168173ffffffffffffffffffffffffffffffffffffffff1614156113cb576040517f08c379a00000000000000000000000000000000000000000000000000000000081526004016113c290613a6a565b60405180910390fd5b6113d481611c11565b50565b6113df611502565b73ffffffffffffffffffffffffffffffffffffffff168373ffffffffffffffffffffffffffffffffffffffff16148061142557506114248361141f611502565b61121e565b5b611464576040517f08c379a000000000000000000000000000000000000000000000000000000000815260040161145b90613a2a565b60405180910390fd5b61146f83838361250a565b505050565b60007f01ffc9a7000000000000000000000000000000000000000000000000000000007bffffffffffffffffffffffffffffffffffffffffffffffffffffffff1916827bffffffffffffffffffffffffffffffffffffffffffffffffffffffff1916149050919050565b600081600001549050919050565b6001816000016000828254019250508190555050565b600033905090565b815183511461154e576040517f08c379a000000000000000000000000000000000000000000000000000000000815260040161154590613c2a565b60405180910390fd5b600073ffffffffffffffffffffffffffffffffffffffff168473ffffffffffffffffffffffffffffffffffffffff1614156115be576040517f08c379a00000000000000000000000000000000000000000000000000000000081526004016115b590613b2a565b60405180910390fd5b60006115c8611502565b90506115d8818787878787612751565b60005b84518110156117d557600085828151811061161f577f4e487b7100000000000000000000000000000000000000000000000000000000600052603260045260246000fd5b602002602001015190506000858381518110611664577f4e487b7100000000000000000000000000000000000000000000000000000000600052603260045260246000fd5b60200260200101519050600080600084815260200190815260200160002060008b73ffffffffffffffffffffffffffffffffffffffff1673ffffffffffffffffffffffffffffffffffffffff16815260200190815260200160002054905081811015611705576040517f08c379a00000000000000000000000000000000000000000000000000000000081526004016116fc90613b6a565b60405180910390fd5b81810360008085815260200190815260200160002060008c73ffffffffffffffffffffffffffffffffffffffff1673ffffffffffffffffffffffffffffffffffffffff168152602001908152602001600020819055508160008085815260200190815260200160002060008b73ffffffffffffffffffffffffffffffffffffffff1673ffffffffffffffffffffffffffffffffffffffff16815260200190815260200160002060008282546117ba9190613e1e565b92505081905550505050806117ce90613f8d565b90506115db565b508473ffffffffffffffffffffffffffffffffffffffff168673ffffffffffffffffffffffffffffffffffffffff168273ffffffffffffffffffffffffffffffffffffffff167f4a39dc06d4c0dbc64b70af90fd698a233a518aa5d07e595d983b8c0526c8f7fb878760405161184c929190613996565b60405180910390a4611862818787878787612759565b611870818787878787612761565b505050505050565b600073ffffffffffffffffffffffffffffffffffffffff168373ffffffffffffffffffffffffffffffffffffffff1614156118e8576040517f08c379a00000000000000000000000000000000000000000000000000000000081526004016118df90613b4a565b60405180910390fd5b805182511461192c576040517f08c379a000000000000000000000000000000000000000000000000000000000815260040161192390613c2a565b60405180910390fd5b6000611936611502565b905061195681856000868660405180602001604052806000815250612751565b60005b8351811015611aef57600084828151811061199d577f4e487b7100000000000000000000000000000000000000000000000000000000600052603260045260246000fd5b6020026020010151905060008483815181106119e2577f4e487b7100000000000000000000000000000000000000000000000000000000600052603260045260246000fd5b60200260200101519050600080600084815260200190815260200160002060008973ffffffffffffffffffffffffffffffffffffffff1673ffffffffffffffffffffffffffffffffffffffff16815260200190815260200160002054905081811015611a83576040517f08c379a0000000000000000000000000000000000000000000000000000000008152600401611a7a90613aaa565b60405180910390fd5b81810360008085815260200190815260200160002060008a73ffffffffffffffffffffffffffffffffffffffff1673ffffffffffffffffffffffffffffffffffffffff168152602001908152602001600020819055505050508080611ae790613f8d565b915050611959565b50600073ffffffffffffffffffffffffffffffffffffffff168473ffffffffffffffffffffffffffffffffffffffff168273ffffffffffffffffffffffffffffffffffffffff167f4a39dc06d4c0dbc64b70af90fd698a233a518aa5d07e595d983b8c0526c8f7fb8686604051611b67929190613996565b60405180910390a4611b8d81856000868660405180602001604052806000815250612759565b50505050565b611b9b611502565b73ffffffffffffffffffffffffffffffffffffffff16611bb9610edf565b73ffffffffffffffffffffffffffffffffffffffff1614611c0f576040517f08c379a0000000000000000000000000000000000000000000000000000000008152600401611c0690613b8a565b60405180910390fd5b565b6000600360009054906101000a900473ffffffffffffffffffffffffffffffffffffffff16905081600360006101000a81548173ffffffffffffffffffffffffffffffffffffffff021916908373ffffffffffffffffffffffffffffffffffffffff1602179055508173ffffffffffffffffffffffffffffffffffffffff168173ffffffffffffffffffffffffffffffffffffffff167f8be0079c531659141344cd1fd0a4f28419497f9722a3daafe3b4186f6b6457e060405160405180910390a35050565b600073ffffffffffffffffffffffffffffffffffffffff168473ffffffffffffffffffffffffffffffffffffffff161415611d47576040517f08c379a0000000000000000000000000000000000000000000000000000000008152600401611d3e90613c4a565b60405180910390fd5b6000611d51611502565b90506000611d5e85612948565b90506000611d6b85612948565b9050611d7c83600089858589612751565b8460008088815260200190815260200160002060008973ffffffffffffffffffffffffffffffffffffffff1673ffffffffffffffffffffffffffffffffffffffff1681526020019081526020016000206000828254611ddb9190613e1e565b925050819055508673ffffffffffffffffffffffffffffffffffffffff16600073ffffffffffffffffffffffffffffffffffffffff168473ffffffffffffffffffffffffffffffffffffffff167fc3d58168c5ae7397731d063d5bbf3d657854427343f4c083240f7aacaa2d0f628989604051611e59929190613ca5565b60405180910390a4611e7083600089858589612759565b611e7f83600089898989612a0e565b50505050505050565b8173ffffffffffffffffffffffffffffffffffffffff168373ffffffffffffffffffffffffffffffffffffffff161415611ef7576040517f08c379a0000000000000000000000000000000000000000000000000000000008152600401611eee90613bca565b60405180910390fd5b80600160008573ffffffffffffffffffffffffffffffffffffffff1673ffffffffffffffffffffffffffffffffffffffff16815260200190815260200160002060008473ffffffffffffffffffffffffffffffffffffffff1673ffffffffffffffffffffffffffffffffffffffff16815260200190815260200160002060006101000a81548160ff0219169083151502179055508173ffffffffffffffffffffffffffffffffffffffff168373ffffffffffffffffffffffffffffffffffffffff167f17307eab39ab6107e8899845ad3d59bd9653f200f220920489ca2b5937696c3183604051611fe891906139cd565b60405180910390a3505050565b600073ffffffffffffffffffffffffffffffffffffffff168473ffffffffffffffffffffffffffffffffffffffff161415612065576040517f08c379a000000000000000000000000000000000000000000000000000000000815260040161205c90613c4a565b60405180910390fd5b81518351146120a9576040517f08c379a00000000000000000000000000000000000000000000000000000000081526004016120a090613c2a565b60405180910390fd5b60006120b3611502565b90506120c481600087878787612751565b60005b84518110156121c957838181518110612109577f4e487b7100000000000000000000000000000000000000000000000000000000600052603260045260246000fd5b602002602001015160008087848151811061214d577f4e487b7100000000000000000000000000000000000000000000000000000000600052603260045260246000fd5b6020026020010151815260200190815260200160002060008873ffffffffffffffffffffffffffffffffffffffff1673ffffffffffffffffffffffffffffffffffffffff16815260200190815260200160002060008282546121af9190613e1e565b9250508190555080806121c190613f8d565b9150506120c7565b508473ffffffffffffffffffffffffffffffffffffffff16600073ffffffffffffffffffffffffffffffffffffffff168273ffffffffffffffffffffffffffffffffffffffff167f4a39dc06d4c0dbc64b70af90fd698a233a518aa5d07e595d983b8c0526c8f7fb8787604051612241929190613996565b60405180910390a461225881600087878787612759565b61226781600087878787612761565b5050505050565b600073ffffffffffffffffffffffffffffffffffffffff168473ffffffffffffffffffffffffffffffffffffffff1614156122de576040517f08c379a00000000000000000000000000000000000000000000000000000000081526004016122d590613b2a565b60405180910390fd5b60006122e8611502565b905060006122f585612948565b9050600061230285612948565b9050612312838989858589612751565b600080600088815260200190815260200160002060008a73ffffffffffffffffffffffffffffffffffffffff1673ffffffffffffffffffffffffffffffffffffffff168152602001908152602001600020549050858110156123a9576040517f08c379a00000000000000000000000000000000000000000000000000000000081526004016123a090613b6a565b60405180910390fd5b85810360008089815260200190815260200160002060008b73ffffffffffffffffffffffffffffffffffffffff1673ffffffffffffffffffffffffffffffffffffffff168152602001908152602001600020819055508560008089815260200190815260200160002060008a73ffffffffffffffffffffffffffffffffffffffff1673ffffffffffffffffffffffffffffffffffffffff168152602001908152602001600020600082825461245e9190613e1e565b925050819055508773ffffffffffffffffffffffffffffffffffffffff168973ffffffffffffffffffffffffffffffffffffffff168573ffffffffffffffffffffffffffffffffffffffff167fc3d58168c5ae7397731d063d5bbf3d657854427343f4c083240f7aacaa2d0f628a8a6040516124db929190613ca5565b60405180910390a46124f1848a8a86868a612759565b6124ff848a8a8a8a8a612a0e565b505050505050505050565b600073ffffffffffffffffffffffffffffffffffffffff168373ffffffffffffffffffffffffffffffffffffffff16141561257a576040517f08c379a000000000000000000000000000000000000000000000000000000000815260040161257190613b4a565b60405180910390fd5b6000612584611502565b9050600061259184612948565b9050600061259e84612948565b90506125be83876000858560405180602001604052806000815250612751565b600080600087815260200190815260200160002060008873ffffffffffffffffffffffffffffffffffffffff1673ffffffffffffffffffffffffffffffffffffffff16815260200190815260200160002054905084811015612655576040517f08c379a000000000000000000000000000000000000000000000000000000000815260040161264c90613aaa565b60405180910390fd5b84810360008088815260200190815260200160002060008973ffffffffffffffffffffffffffffffffffffffff1673ffffffffffffffffffffffffffffffffffffffff16815260200190815260200160002081905550600073ffffffffffffffffffffffffffffffffffffffff168773ffffffffffffffffffffffffffffffffffffffff168573ffffffffffffffffffffffffffffffffffffffff167fc3d58168c5ae7397731d063d5bbf3d657854427343f4c083240f7aacaa2d0f628989604051612722929190613ca5565b60405180910390a461274884886000868660405180602001604052806000815250612759565b50505050505050565b505050505050565b505050505050565b6127808473ffffffffffffffffffffffffffffffffffffffff16612bf5565b15612940578373ffffffffffffffffffffffffffffffffffffffff1663bc197c8187878686866040518663ffffffff1660e01b81526004016127c69594939291906138b2565b602060405180830381600087803b1580156127e057600080fd5b505af192505050801561281157506040513d601f19601f8201168201806040525081019061280e91906133d0565b60015b6128b75761281d614063565b806308c379a0141561287a57506128326145eb565b8061283d575061287c565b806040517f08c379a000000000000000000000000000000000000000000000000000000000815260040161287191906139e8565b60405180910390fd5b505b6040517f08c379a00000000000000000000000000000000000000000000000000000000081526004016128ae90613a0a565b60405180910390fd5b63bc197c8160e01b7bffffffffffffffffffffffffffffffffffffffffffffffffffffffff1916817bffffffffffffffffffffffffffffffffffffffffffffffffffffffff19161461293e576040517f08c379a000000000000000000000000000000000000000000000000000000000815260040161293590613a4a565b60405180910390fd5b505b505050505050565b60606000600167ffffffffffffffff81111561298d577f4e487b7100000000000000000000000000000000000000000000000000000000600052604160045260246000fd5b6040519080825280602002602001820160405280156129bb5781602001602082028036833780820191505090505b50905082816000815181106129f9577f4e487b7100000000000000000000000000000000000000000000000000000000600052603260045260246000fd5b60200260200101818152505080915050919050565b612a2d8473ffffffffffffffffffffffffffffffffffffffff16612bf5565b15612bed578373ffffffffffffffffffffffffffffffffffffffff1663f23a6e6187878686866040518663ffffffff1660e01b8152600401612a7395949392919061391a565b602060405180830381600087803b158015612a8d57600080fd5b505af1925050508015612abe57506040513d601f19601f82011682018060405250810190612abb91906133d0565b60015b612b6457612aca614063565b806308c379a01415612b275750612adf6145eb565b80612aea5750612b29565b806040517f08c379a0000000000000000000000000000000000000000000000000000000008152600401612b1e91906139e8565b60405180910390fd5b505b6040517f08c379a0000000000000000000000000000000000000000000000000000000008152600401612b5b90613a0a565b60405180910390fd5b63f23a6e6160e01b7bffffffffffffffffffffffffffffffffffffffffffffffffffffffff1916817bffffffffffffffffffffffffffffffffffffffffffffffffffffffff191614612beb576040517f08c379a0000000000000000000000000000000000000000000000000000000008152600401612be290613a4a565b60405180910390fd5b505b505050505050565b6000808273ffffffffffffffffffffffffffffffffffffffff163b119050919050565b828054612c2490613f2a565b90600052602060002090601f016020900481019282612c465760008555612c8d565b82601f10612c5f57805160ff1916838001178555612c8d565b82800160010185558215612c8d579182015b82811115612c8c578251825591602001919060010190612c71565b5b509050612c9a9190612c9e565b5090565b5b80821115612cb7576000816000905550600101612c9f565b5090565b6000612cce612cc984613cf3565b613cce565b90508083825260208201905082856020860282011115612ced57600080fd5b60005b85811015612d1d5781612d038882612e0f565b845260208401935060208301925050600181019050612cf0565b5050509392505050565b6000612d3a612d3584613d1f565b613cce565b90508083825260208201905082856020860282011115612d5957600080fd5b60005b85811015612d895781612d6f8882612f55565b845260208401935060208301925050600181019050612d5c565b5050509392505050565b6000612da6612da184613d4b565b613cce565b905082815260208101848484011115612dbe57600080fd5b612dc9848285613ee8565b509392505050565b6000612de4612ddf84613d7c565b613cce565b905082815260208101848484011115612dfc57600080fd5b612e07848285613ee8565b509392505050565b600081359050612e1e81614681565b92915050565b60008083601f840112612e3657600080fd5b8235905067ffffffffffffffff811115612e4f57600080fd5b602083019150836020820283011115612e6757600080fd5b9250929050565b600082601f830112612e7f57600080fd5b8135612e8f848260208601612cbb565b91505092915050565b600082601f830112612ea957600080fd5b8135612eb9848260208601612d27565b91505092915050565b600081359050612ed181614698565b92915050565b600081359050612ee6816146af565b92915050565b600081519050612efb816146af565b92915050565b600082601f830112612f1257600080fd5b8135612f22848260208601612d93565b91505092915050565b600082601f830112612f3c57600080fd5b8135612f4c848260208601612dd1565b91505092915050565b600081359050612f64816146c6565b92915050565b600060208284031215612f7c57600080fd5b6000612f8a84828501612e0f565b91505092915050565b60008060408385031215612fa657600080fd5b6000612fb485828601612e0f565b9250506020612fc585828601612e0f565b9150509250929050565b600080600080600060a08688031215612fe757600080fd5b6000612ff588828901612e0f565b955050602061300688828901612e0f565b945050604086013567ffffffffffffffff81111561302357600080fd5b61302f88828901612e98565b935050606086013567ffffffffffffffff81111561304c57600080fd5b61305888828901612e98565b925050608086013567ffffffffffffffff81111561307557600080fd5b61308188828901612f01565b9150509295509295909350565b600080600080600060a086880312156130a657600080fd5b60006130b488828901612e0f565b95505060206130c588828901612e0f565b94505060406130d688828901612f55565b93505060606130e788828901612f55565b925050608086013567ffffffffffffffff81111561310457600080fd5b61311088828901612f01565b9150509295509295909350565b60008060006060848603121561313257600080fd5b600061314086828701612e0f565b935050602084013567ffffffffffffffff81111561315d57600080fd5b61316986828701612e98565b925050604084013567ffffffffffffffff81111561318657600080fd5b61319286828701612e98565b9150509250925092565b600080604083850312156131af57600080fd5b60006131bd85828601612e0f565b92505060206131ce85828601612ec2565b9150509250929050565b600080604083850312156131eb57600080fd5b60006131f985828601612e0f565b925050602061320a85828601612f55565b9150509250929050565b60008060006060848603121561322957600080fd5b600061323786828701612e0f565b935050602061324886828701612f55565b925050604061325986828701612f55565b9150509250925092565b6000806000806060858703121561327957600080fd5b600085013567ffffffffffffffff81111561329357600080fd5b61329f87828801612e24565b945094505060206132b287828801612f55565b92505060406132c387828801612f55565b91505092959194509250565b600080604083850312156132e257600080fd5b600083013567ffffffffffffffff8111156132fc57600080fd5b61330885828601612e6e565b925050602083013567ffffffffffffffff81111561332557600080fd5b61333185828601612e98565b9150509250929050565b6000806040838503121561334e57600080fd5b600083013567ffffffffffffffff81111561336857600080fd5b61337485828601612e98565b925050602083013567ffffffffffffffff81111561339157600080fd5b61339d85828601612e98565b9150509250929050565b6000602082840312156133b957600080fd5b60006133c784828501612ed7565b91505092915050565b6000602082840312156133e257600080fd5b60006133f084828501612eec565b91505092915050565b60006020828403121561340b57600080fd5b600082013567ffffffffffffffff81111561342557600080fd5b61343184828501612f2b565b91505092915050565b60006020828403121561344c57600080fd5b600061345a84828501612f55565b91505092915050565b6000806040838503121561347657600080fd5b600061348485828601612f55565b925050602083013567ffffffffffffffff8111156134a157600080fd5b6134ad85828601612f2b565b9150509250929050565b60006134c38383613879565b60208301905092915050565b6134d881613e74565b82525050565b60006134e982613dbd565b6134f38185613deb565b93506134fe83613dad565b8060005b8381101561352f57815161351688826134b7565b975061352183613dde565b925050600181019050613502565b5085935050505092915050565b61354581613e86565b82525050565b600061355682613dc8565b6135608185613dfc565b9350613570818560208601613ef7565b61357981614085565b840191505092915050565b600061358f82613dd3565b6135998185613e0d565b93506135a9818560208601613ef7565b6135b281614085565b840191505092915050565b60006135ca603483613e0d565b91506135d5826140a3565b604082019050919050565b60006135ed602f83613e0d565b91506135f8826140f2565b604082019050919050565b6000613610602883613e0d565b915061361b82614141565b604082019050919050565b6000613633602683613e0d565b915061363e82614190565b604082019050919050565b6000613656600f83613e0d565b9150613661826141df565b602082019050919050565b6000613679602483613e0d565b915061368482614208565b604082019050919050565b600061369c602a83613e0d565b91506136a782614257565b604082019050919050565b60006136bf601683613e0d565b91506136ca826142a6565b602082019050919050565b60006136e2602483613e0d565b91506136ed826142cf565b604082019050919050565b6000613705602583613e0d565b91506137108261431e565b604082019050919050565b6000613728602383613e0d565b91506137338261436d565b604082019050919050565b600061374b602a83613e0d565b9150613756826143bc565b604082019050919050565b600061376e602083613e0d565b91506137798261440b565b602082019050919050565b6000613791601183613e0d565b915061379c82614434565b602082019050919050565b60006137b4602983613e0d565b91506137bf8261445d565b604082019050919050565b60006137d7602983613e0d565b91506137e2826144ac565b604082019050919050565b60006137fa601a83613e0d565b9150613805826144fb565b602082019050919050565b600061381d602883613e0d565b915061382882614524565b604082019050919050565b6000613840602183613e0d565b915061384b82614573565b604082019050919050565b6000613863600c83613e0d565b915061386e826145c2565b602082019050919050565b61388281613ede565b82525050565b61389181613ede565b82525050565b60006020820190506138ac60008301846134cf565b92915050565b600060a0820190506138c760008301886134cf565b6138d460208301876134cf565b81810360408301526138e681866134de565b905081810360608301526138fa81856134de565b9050818103608083015261390e818461354b565b90509695505050505050565b600060a08201905061392f60008301886134cf565b61393c60208301876134cf565b6139496040830186613888565b6139566060830185613888565b8181036080830152613968818461354b565b90509695505050505050565b6000602082019050818103600083015261398e81846134de565b905092915050565b600060408201905081810360008301526139b081856134de565b905081810360208301526139c481846134de565b90509392505050565b60006020820190506139e2600083018461353c565b92915050565b60006020820190508181036000830152613a028184613584565b905092915050565b60006020820190508181036000830152613a23816135bd565b9050919050565b60006020820190508181036000830152613a43816135e0565b9050919050565b60006020820190508181036000830152613a6381613603565b9050919050565b60006020820190508181036000830152613a8381613626565b9050919050565b60006020820190508181036000830152613aa381613649565b9050919050565b60006020820190508181036000830152613ac38161366c565b9050919050565b60006020820190508181036000830152613ae38161368f565b9050919050565b60006020820190508181036000830152613b03816136b2565b9050919050565b60006020820190508181036000830152613b23816136d5565b9050919050565b60006020820190508181036000830152613b43816136f8565b9050919050565b60006020820190508181036000830152613b638161371b565b9050919050565b60006020820190508181036000830152613b838161373e565b9050919050565b60006020820190508181036000830152613ba381613761565b9050919050565b60006020820190508181036000830152613bc381613784565b9050919050565b60006020820190508181036000830152613be3816137a7565b9050919050565b60006020820190508181036000830152613c03816137ca565b9050919050565b60006020820190508181036000830152613c23816137ed565b9050919050565b60006020820190508181036000830152613c4381613810565b9050919050565b60006020820190508181036000830152613c6381613833565b9050919050565b60006020820190508181036000830152613c8381613856565b9050919050565b6000602082019050613c9f6000830184613888565b92915050565b6000604082019050613cba6000830185613888565b613cc76020830184613888565b9392505050565b6000613cd8613ce9565b9050613ce48282613f5c565b919050565b6000604051905090565b600067ffffffffffffffff821115613d0e57613d0d614034565b5b602082029050602081019050919050565b600067ffffffffffffffff821115613d3a57613d39614034565b5b602082029050602081019050919050565b600067ffffffffffffffff821115613d6657613d65614034565b5b613d6f82614085565b9050602081019050919050565b600067ffffffffffffffff821115613d9757613d96614034565b5b613da082614085565b9050602081019050919050565b6000819050602082019050919050565b600081519050919050565b600081519050919050565b600081519050919050565b6000602082019050919050565b600082825260208201905092915050565b600082825260208201905092915050565b600082825260208201905092915050565b6000613e2982613ede565b9150613e3483613ede565b9250827fffffffffffffffffffffffffffffffffffffffffffffffffffffffffffffffff03821115613e6957613e68613fd6565b5b828201905092915050565b6000613e7f82613ebe565b9050919050565b60008115159050919050565b60007fffffffff0000000000000000000000000000000000000000000000000000000082169050919050565b600073ffffffffffffffffffffffffffffffffffffffff82169050919050565b6000819050919050565b82818337600083830152505050565b60005b83811015613f15578082015181840152602081019050613efa565b83811115613f24576000848401525b50505050565b60006002820490506001821680613f4257607f821691505b60208210811415613f5657613f55614005565b5b50919050565b613f6582614085565b810181811067ffffffffffffffff82111715613f8457613f83614034565b5b80604052505050565b6000613f9882613ede565b91507fffffffffffffffffffffffffffffffffffffffffffffffffffffffffffffffff821415613fcb57613fca613fd6565b5b600182019050919050565b7f4e487b7100000000000000000000000000000000000000000000000000000000600052601160045260246000fd5b7f4e487b7100000000000000000000000000000000000000000000000000000000600052602260045260246000fd5b7f4e487b7100000000000000000000000000000000000000000000000000000000600052604160045260246000fd5b600060033d11156140825760046000803e61407f600051614096565b90505b90565b6000601f19601f8301169050919050565b60008160e01c9050919050565b7f455243313135353a207472616e7366657220746f206e6f6e204552433131353560008201527f526563656976657220696d706c656d656e746572000000000000000000000000602082015250565b7f455243313135353a2063616c6c6572206973206e6f7420746f6b656e206f776e60008201527f6572206e6f7220617070726f7665640000000000000000000000000000000000602082015250565b7f455243313135353a204552433131353552656365697665722072656a6563746560008201527f6420746f6b656e73000000000000000000000000000000000000000000000000602082015250565b7f4f776e61626c653a206e6577206f776e657220697320746865207a65726f206160008201527f6464726573730000000000000000000000000000000000000000000000000000602082015250565b7f55524920616c7265616479207365740000000000000000000000000000000000600082015250565b7f455243313135353a206275726e20616d6f756e7420657863656564732062616c60008201527f616e636500000000000000000000000000000000000000000000000000000000602082015250565b7f455243313135353a2061646472657373207a65726f206973206e6f742061207660008201527f616c6964206f776e657200000000000000000000000000000000000000000000602082015250565b7f43616e6e6f74206265207a65726f206164647265737300000000000000000000600082015250565b7f496e73756666696369656e742062616c616e636520666f72207472616e73616360008201527f74696f6e00000000000000000000000000000000000000000000000000000000602082015250565b7f455243313135353a207472616e7366657220746f20746865207a65726f20616460008201527f6472657373000000000000000000000000000000000000000000000000000000602082015250565b7f455243313135353a206275726e2066726f6d20746865207a65726f206164647260008201527f6573730000000000000000000000000000000000000000000000000000000000602082015250565b7f455243313135353a20696e73756666696369656e742062616c616e636520666f60008201527f72207472616e7366657200000000000000000000000000000000000000000000602082015250565b7f4f776e61626c653a2063616c6c6572206973206e6f7420746865206f776e6572600082015250565b7f5572692063616e7420626520656d707479000000000000000000000000000000600082015250565b7f455243313135353a2073657474696e6720617070726f76616c2073746174757360008201527f20666f722073656c660000000000000000000000000000000000000000000000602082015250565b7f455243313135353a206163636f756e747320616e6420696473206c656e67746860008201527f206d69736d617463680000000000000000000000000000000000000000000000602082015250565b7f416d6f756e742063616e74206265206c657373207468616e2030000000000000600082015250565b7f455243313135353a2069647320616e6420616d6f756e7473206c656e6774682060008201527f6d69736d61746368000000000000000000000000000000000000000000000000602082015250565b7f455243313135353a206d696e7420746f20746865207a65726f2061646472657360008201527f7300000000000000000000000000000000000000000000000000000000000000602082015250565b7f4e6f74206f70657261746f720000000000000000000000000000000000000000600082015250565b600060443d10156145fb5761467e565b614603613ce9565b60043d036004823e80513d602482011167ffffffffffffffff8211171561462b57505061467e565b808201805167ffffffffffffffff811115614649575050505061467e565b80602083010160043d03850181111561466657505050505061467e565b61467582602001850186613f5c565b82955050505050505b90565b61468a81613e74565b811461469557600080fd5b50565b6146a181613e86565b81146146ac57600080fd5b50565b6146b881613e92565b81146146c357600080fd5b50565b6146cf81613ede565b81146146da57600080fd5b5056fea2646970667358221220be8bef3481b4804166ad8c61b067433930c6c61f235fed026ab2dc8e821275a664736f6c63430008040033",
  "linkReferences": {},
  "deployedLinkReferences": {}
}