{
  "_format": "hh-sol-artifact-1",
  "contractName": "Hepier",
  "sourceName": "contracts/hepier.sol",
  "abi": [
    {
      "inputs": [],
      "stateMutability": "nonpayable",
      "type": "constructor"
    },
    {
      "anonymous": false,
      "inputs": [
        {
          "indexed": true,
          "internalType": "address",
          "name": "account",
          "type": "address"
        },
        {
          "indexed": true,
          "internalType": "address",
          "name": "operator",
          "type": "address"
        },
        {
          "indexed": false,
          "internalType": "bool",
          "name": "approved",
          "type": "bool"
        }
      ],
      "name": "ApprovalForAll",
      "type": "event"
    },
    {
      "anonymous": false,
      "inputs": [
        {
          "indexed": true,
          "internalType": "address",
          "name": "previousOwner",
          "type": "address"
        },
        {
          "indexed": true,
          "internalType": "address",
          "name": "newOwner",
          "type": "address"
        }
      ],
      "name": "OwnershipTransferred",
      "type": "event"
    },
    {
      "anonymous": false,
      "inputs": [
        {
          "indexed": true,
          "internalType": "address",
          "name": "operator",
          "type": "address"
        },
        {
          "indexed": true,
          "internalType": "address",
          "name": "from",
          "type": "address"
        },
        {
          "indexed": true,
          "internalType": "address",
          "name": "to",
          "type": "address"
        },
        {
          "indexed": false,
          "internalType": "uint256[]",
          "name": "ids",
          "type": "uint256[]"
        },
        {
          "indexed": false,
          "internalType": "uint256[]",
          "name": "values",
          "type": "uint256[]"
        }
      ],
      "name": "TransferBatch",
      "type": "event"
    },
    {
      "anonymous": false,
      "inputs": [
        {
          "indexed": true,
          "internalType": "address",
          "name": "operator",
          "type": "address"
        },
        {
          "indexed": true,
          "internalType": "address",
          "name": "from",
          "type": "address"
        },
        {
          "indexed": true,
          "internalType": "address",
          "name": "to",
          "type": "address"
        },
        {
          "indexed": false,
          "internalType": "uint256",
          "name": "id",
          "type": "uint256"
        },
        {
          "indexed": false,
          "internalType": "uint256",
          "name": "value",
          "type": "uint256"
        }
      ],
      "name": "TransferSingle",
      "type": "event"
    },
    {
      "anonymous": false,
      "inputs": [
        {
          "indexed": false,
          "internalType": "string",
          "name": "value",
          "type": "string"
        },
        {
          "indexed": true,
          "internalType": "uint256",
          "name": "id",
          "type": "uint256"
        }
      ],
      "name": "URI",
      "type": "event"
    },
    {
      "inputs": [
        {
          "internalType": "address",
          "name": "account",
          "type": "address"
        },
        {
          "internalType": "uint256",
          "name": "id",
          "type": "uint256"
        }
      ],
      "name": "balanceOf",
      "outputs": [
        {
          "internalType": "uint256",
          "name": "",
          "type": "uint256"
        }
      ],
      "stateMutability": "view",
      "type": "function"
    },
    {
      "inputs": [
        {
          "internalType": "address[]",
          "name": "accounts",
          "type": "address[]"
        },
        {
          "internalType": "uint256[]",
          "name": "ids",
          "type": "uint256[]"
        }
      ],
      "name": "balanceOfBatch",
      "outputs": [
        {
          "internalType": "uint256[]",
          "name": "",
          "type": "uint256[]"
        }
      ],
      "stateMutability": "view",
      "type": "function"
    },
    {
      "inputs": [
        {
          "internalType": "address",
          "name": "account",
          "type": "address"
        },
        {
          "internalType": "uint256",
          "name": "id",
          "type": "uint256"
        },
        {
          "internalType": "uint256",
          "name": "value",
          "type": "uint256"
        }
      ],
      "name": "burn",
      "outputs": [],
      "stateMutability": "nonpayable",
      "type": "function"
    },
    {
      "inputs": [
        {
          "internalType": "address",
          "name": "account",
          "type": "address"
        },
        {
          "internalType": "uint256[]",
          "name": "ids",
          "type": "uint256[]"
        },
        {
          "internalType": "uint256[]",
          "name": "values",
          "type": "uint256[]"
        }
      ],
      "name": "burnBatch",
      "outputs": [],
      "stateMutability": "nonpayable",
      "type": "function"
    },
    {
      "inputs": [
        {
          "internalType": "address",
          "name": "account",
          "type": "address"
        },
        {
          "internalType": "address",
          "name": "operator",
          "type": "address"
        }
      ],
      "name": "isApprovedForAll",
      "outputs": [
        {
          "internalType": "bool",
          "name": "",
          "type": "bool"
        }
      ],
      "stateMutability": "view",
      "type": "function"
    },
    {
      "inputs": [
        {
          "internalType": "uint256",
          "name": "amount",
          "type": "uint256"
        }
      ],
      "name": "mint",
      "outputs": [],
      "stateMutability": "nonpayable",
      "type": "function"
    },
    {
      "inputs": [
        {
          "internalType": "uint256[]",
          "name": "ids",
          "type": "uint256[]"
        },
        {
          "internalType": "uint256[]",
          "name": "amounts",
          "type": "uint256[]"
        }
      ],
      "name": "mintBatch",
      "outputs": [],
      "stateMutability": "nonpayable",
      "type": "function"
    },
    {
      "inputs": [],
      "name": "owner",
      "outputs": [
        {
          "internalType": "address",
          "name": "",
          "type": "address"
        }
      ],
      "stateMutability": "view",
      "type": "function"
    },
    {
      "inputs": [],
      "name": "renounceOwnership",
      "outputs": [],
      "stateMutability": "nonpayable",
      "type": "function"
    },
    {
      "inputs": [
        {
          "internalType": "address",
          "name": "from",
          "type": "address"
        },
        {
          "internalType": "address",
          "name": "to",
          "type": "address"
        },
        {
          "internalType": "uint256[]",
          "name": "ids",
          "type": "uint256[]"
        },
        {
          "internalType": "uint256[]",
          "name": "amounts",
          "type": "uint256[]"
        },
        {
          "internalType": "bytes",
          "name": "data",
          "type": "bytes"
        }
      ],
      "name": "safeBatchTransferFrom",
      "outputs": [],
      "stateMutability": "nonpayable",
      "type": "function"
    },
    {
      "inputs": [
        {
          "internalType": "address",
          "name": "from",
          "type": "address"
        },
        {
          "internalType": "address",
          "name": "to",
          "type": "address"
        },
        {
          "internalType": "uint256",
          "name": "id",
          "type": "uint256"
        },
        {
          "internalType": "uint256",
          "name": "amount",
          "type": "uint256"
        },
        {
          "internalType": "bytes",
          "name": "data",
          "type": "bytes"
        }
      ],
      "name": "safeTransferFrom",
      "outputs": [],
      "stateMutability": "nonpayable",
      "type": "function"
    },
    {
      "inputs": [
        {
          "internalType": "address",
          "name": "operator",
          "type": "address"
        },
        {
          "internalType": "bool",
          "name": "approved",
          "type": "bool"
        }
      ],
      "name": "setApprovalForAll",
      "outputs": [],
      "stateMutability": "nonpayable",
      "type": "function"
    },
    {
      "inputs": [
        {
          "internalType": "string",
          "name": "newuri",
          "type": "string"
        }
      ],
      "name": "setURI",
      "outputs": [],
      "stateMutability": "nonpayable",
      "type": "function"
    },
    {
      "inputs": [
        {
          "internalType": "bytes4",
          "name": "interfaceId",
          "type": "bytes4"
        }
      ],
      "name": "supportsInterface",
      "outputs": [
        {
          "internalType": "bool",
          "name": "",
          "type": "bool"
        }
      ],
      "stateMutability": "view",
      "type": "function"
    },
    {
      "inputs": [
        {
          "internalType": "uint256",
          "name": "",
          "type": "uint256"
        }
      ],
      "name": "tokenURI",
      "outputs": [
        {
          "internalType": "string",
          "name": "",
          "type": "string"
        }
      ],
      "stateMutability": "view",
      "type": "function"
    },
    {
      "inputs": [
        {
          "internalType": "address",
          "name": "to",
          "type": "address"
        },
        {
          "internalType": "uint256",
          "name": "amount",
          "type": "uint256"
        }
      ],
      "name": "transfer",
      "outputs": [],
      "stateMutability": "nonpayable",
      "type": "function"
    },
    {
      "inputs": [
        {
          "internalType": "address",
          "name": "newOwner",
          "type": "address"
        }
      ],
      "name": "transferOwnership",
      "outputs": [],
      "stateMutability": "nonpayable",
      "type": "function"
    },
    {
      "inputs": [
        {
          "internalType": "uint256",
          "name": "_id",
          "type": "uint256"
        }
      ],
      "name": "uri",
      "outputs": [
        {
          "internalType": "string",
          "name": "",
          "type": "string"
        }
      ],
      "stateMutability": "view",
      "type": "function"
    }
  ],
  "bytecode": "0x60806040523480156200001157600080fd5b506040518060400160405280600381526020017f484550000000000000000000000000000000000000000000000000000000000081525062000059816200008060201b60201c565b506200007a6200006e6200009c60201b60201c565b620000a460201b60201c565b6200027f565b8060029080519060200190620000989291906200016a565b5050565b600033905090565b6000600360009054906101000a900473ffffffffffffffffffffffffffffffffffffffff16905081600360006101000a81548173ffffffffffffffffffffffffffffffffffffffff021916908373ffffffffffffffffffffffffffffffffffffffff1602179055508173ffffffffffffffffffffffffffffffffffffffff168173ffffffffffffffffffffffffffffffffffffffff167f8be0079c531659141344cd1fd0a4f28419497f9722a3daafe3b4186f6b6457e060405160405180910390a35050565b82805462000178906200021a565b90600052602060002090601f0160209004810192826200019c5760008555620001e8565b82601f10620001b757805160ff1916838001178555620001e8565b82800160010185558215620001e8579182015b82811115620001e7578251825591602001919060010190620001ca565b5b509050620001f79190620001fb565b5090565b5b8082111562000216576000816000905550600101620001fc565b5090565b600060028204905060018216806200023357607f821691505b602082108114156200024a576200024962000250565b5b50919050565b7f4e487b7100000000000000000000000000000000000000000000000000000000600052602260045260246000fd5b613d6f806200028f6000396000f3fe608060405234801561001057600080fd5b50600436106101155760003560e01c8063a0712d68116100a2578063d351cfdc11610071578063d351cfdc146102da578063e985e9c5146102f6578063f242432a14610326578063f2fde38b14610342578063f5298aca1461035e57610115565b8063a0712d6814610256578063a22cb46514610272578063a9059cbb1461028e578063c87b56dd146102aa57610115565b80632eb2c2d6116100e95780632eb2c2d6146101c65780634e1273f4146101e25780636b20c45414610212578063715018a61461022e5780638da5cb5b1461023857610115565b8062fdd58e1461011a57806301ffc9a71461014a57806302fe53051461017a5780630e89341c14610196575b600080fd5b610134600480360381019061012f9190612aca565b61037a565b60405161014191906133b0565b60405180910390f35b610164600480360381019061015f9190612c2d565b610443565b6040516101719190613173565b60405180910390f35b610194600480360381019061018f9190612c7f565b610525565b005b6101b060048036038101906101ab9190612cc0565b6105d3565b6040516101bd919061318e565b60405180910390f35b6101e060048036038101906101db91906128c1565b610678565b005b6101fc60048036038101906101f79190612b55565b610719565b604051610209919061311a565b60405180910390f35b61022c60048036038101906102279190612a0f565b6108ca565b005b610236610967565b005b61024061097b565b60405161024d919061303d565b60405180910390f35b610270600480360381019061026b9190612cc0565b6109a5565b005b61028c60048036038101906102879190612a8e565b6109e4565b005b6102a860048036038101906102a39190612aca565b6109fa565b005b6102c460048036038101906102bf9190612cc0565b610a37565b6040516102d1919061318e565b60405180910390f35b6102f460048036038101906102ef9190612bc1565b610ad7565b005b610310600480360381019061030b9190612885565b610afe565b60405161031d9190613173565b60405180910390f35b610340600480360381019061033b9190612980565b610b92565b005b61035c6004803603810190610357919061285c565b610c33565b005b61037860048036038101906103739190612b06565b610cb7565b005b60008073ffffffffffffffffffffffffffffffffffffffff168373ffffffffffffffffffffffffffffffffffffffff1614156103eb576040517f08c379a00000000000000000000000000000000000000000000000000000000081526004016103e290613290565b60405180910390fd5b60008083815260200190815260200160002060008473ffffffffffffffffffffffffffffffffffffffff1673ffffffffffffffffffffffffffffffffffffffff16815260200190815260200160002054905092915050565b60007fd9b67a26000000000000000000000000000000000000000000000000000000007bffffffffffffffffffffffffffffffffffffffffffffffffffffffff1916827bffffffffffffffffffffffffffffffffffffffffffffffffffffffff1916148061050e57507f0e89341c000000000000000000000000000000000000000000000000000000007bffffffffffffffffffffffffffffffffffffffffffffffffffffffff1916827bffffffffffffffffffffffffffffffffffffffffffffffffffffffff1916145b8061051e575061051d82610d54565b5b9050919050565b61052d610dbe565b6105376004610e3c565b60006105436004610e98565b9050600060056000838152602001908152602001600020805461056590613650565b9050146105a7576040517f08c379a000000000000000000000000000000000000000000000000000000000815260040161059e90613250565b60405180910390fd5b816005600083815260200190815260200160002090805190602001906105ce929190612554565b505050565b60606005600083815260200190815260200160002080546105f390613650565b80601f016020809104026020016040519081016040528092919081815260200182805461061f90613650565b801561066c5780601f106106415761010080835404028352916020019161066c565b820191906000526020600020905b81548152906001019060200180831161064f57829003601f168201915b50505050509050919050565b610680610ea6565b73ffffffffffffffffffffffffffffffffffffffff168573ffffffffffffffffffffffffffffffffffffffff1614806106c657506106c5856106c0610ea6565b610afe565b5b610705576040517f08c379a00000000000000000000000000000000000000000000000000000000081526004016106fc906131d0565b60405180910390fd5b6107128585858585610eae565b5050505050565b6060815183511461075f576040517f08c379a000000000000000000000000000000000000000000000000000000000815260040161075690613350565b60405180910390fd5b6000835167ffffffffffffffff8111156107a2577f4e487b7100000000000000000000000000000000000000000000000000000000600052604160045260246000fd5b6040519080825280602002602001820160405280156107d05781602001602082028036833780820191505090505b50905060005b84518110156108bf5761086985828151811061081b577f4e487b7100000000000000000000000000000000000000000000000000000000600052603260045260246000fd5b602002602001015185838151811061085c577f4e487b7100000000000000000000000000000000000000000000000000000000600052603260045260246000fd5b602002602001015161037a565b8282815181106108a2577f4e487b7100000000000000000000000000000000000000000000000000000000600052603260045260246000fd5b602002602001018181525050806108b8906136b3565b90506107d6565b508091505092915050565b6108d2610ea6565b73ffffffffffffffffffffffffffffffffffffffff168373ffffffffffffffffffffffffffffffffffffffff161480610918575061091783610912610ea6565b610afe565b5b610957576040517f08c379a000000000000000000000000000000000000000000000000000000000815260040161094e906131d0565b60405180910390fd5b61096283838361121c565b505050565b61096f610dbe565b6109796000611537565b565b6000600360009054906101000a900473ffffffffffffffffffffffffffffffffffffffff16905090565b6109ad610dbe565b60006109b96004610e98565b90506109d6338284604051806020016040528060008152506115fd565b6109e060046117ae565b5050565b6109f66109ef610ea6565b83836117c4565b5050565b610a02610dbe565b60003390506000610a136004610e98565b9050610a318285838660405180602001604052806000815250610b92565b50505050565b60056020528060005260406000206000915090508054610a5690613650565b80601f0160208091040260200160405190810160405280929190818152602001828054610a8290613650565b8015610acf5780601f10610aa457610100808354040283529160200191610acf565b820191906000526020600020905b815481529060010190602001808311610ab257829003601f168201915b505050505081565b610adf610dbe565b610afa33838360405180602001604052806000815250611931565b5050565b6000600160008473ffffffffffffffffffffffffffffffffffffffff1673ffffffffffffffffffffffffffffffffffffffff16815260200190815260200160002060008373ffffffffffffffffffffffffffffffffffffffff1673ffffffffffffffffffffffffffffffffffffffff16815260200190815260200160002060009054906101000a900460ff16905092915050565b610b9a610ea6565b73ffffffffffffffffffffffffffffffffffffffff168573ffffffffffffffffffffffffffffffffffffffff161480610be05750610bdf85610bda610ea6565b610afe565b5b610c1f576040517f08c379a0000000000000000000000000000000000000000000000000000000008152600401610c16906131d0565b60405180910390fd5b610c2c8585858585611baa565b5050505050565b610c3b610dbe565b600073ffffffffffffffffffffffffffffffffffffffff168173ffffffffffffffffffffffffffffffffffffffff161415610cab576040517f08c379a0000000000000000000000000000000000000000000000000000000008152600401610ca290613230565b60405180910390fd5b610cb481611537565b50565b610cbf610ea6565b73ffffffffffffffffffffffffffffffffffffffff168373ffffffffffffffffffffffffffffffffffffffff161480610d055750610d0483610cff610ea6565b610afe565b5b610d44576040517f08c379a0000000000000000000000000000000000000000000000000000000008152600401610d3b906131d0565b60405180910390fd5b610d4f838383611e46565b505050565b60007f01ffc9a7000000000000000000000000000000000000000000000000000000007bffffffffffffffffffffffffffffffffffffffffffffffffffffffff1916827bffffffffffffffffffffffffffffffffffffffffffffffffffffffff1916149050919050565b610dc6610ea6565b73ffffffffffffffffffffffffffffffffffffffff16610de461097b565b73ffffffffffffffffffffffffffffffffffffffff1614610e3a576040517f08c379a0000000000000000000000000000000000000000000000000000000008152600401610e3190613310565b60405180910390fd5b565b60008160000154905060008111610e88576040517f08c379a0000000000000000000000000000000000000000000000000000000008152600401610e7f90613210565b60405180910390fd5b6001810382600001819055505050565b600081600001549050919050565b600033905090565b8151835114610ef2576040517f08c379a0000000000000000000000000000000000000000000000000000000008152600401610ee990613370565b60405180910390fd5b600073ffffffffffffffffffffffffffffffffffffffff168473ffffffffffffffffffffffffffffffffffffffff161415610f62576040517f08c379a0000000000000000000000000000000000000000000000000000000008152600401610f59906132b0565b60405180910390fd5b6000610f6c610ea6565b9050610f7c81878787878761208d565b60005b8451811015611179576000858281518110610fc3577f4e487b7100000000000000000000000000000000000000000000000000000000600052603260045260246000fd5b602002602001015190506000858381518110611008577f4e487b7100000000000000000000000000000000000000000000000000000000600052603260045260246000fd5b60200260200101519050600080600084815260200190815260200160002060008b73ffffffffffffffffffffffffffffffffffffffff1673ffffffffffffffffffffffffffffffffffffffff168152602001908152602001600020549050818110156110a9576040517f08c379a00000000000000000000000000000000000000000000000000000000081526004016110a0906132f0565b60405180910390fd5b81810360008085815260200190815260200160002060008c73ffffffffffffffffffffffffffffffffffffffff1673ffffffffffffffffffffffffffffffffffffffff168152602001908152602001600020819055508160008085815260200190815260200160002060008b73ffffffffffffffffffffffffffffffffffffffff1673ffffffffffffffffffffffffffffffffffffffff168152602001908152602001600020600082825461115e9190613544565b9250508190555050505080611172906136b3565b9050610f7f565b508473ffffffffffffffffffffffffffffffffffffffff168673ffffffffffffffffffffffffffffffffffffffff168273ffffffffffffffffffffffffffffffffffffffff167f4a39dc06d4c0dbc64b70af90fd698a233a518aa5d07e595d983b8c0526c8f7fb87876040516111f092919061313c565b60405180910390a4611206818787878787612095565b61121481878787878761209d565b505050505050565b600073ffffffffffffffffffffffffffffffffffffffff168373ffffffffffffffffffffffffffffffffffffffff16141561128c576040517f08c379a0000000000000000000000000000000000000000000000000000000008152600401611283906132d0565b60405180910390fd5b80518251146112d0576040517f08c379a00000000000000000000000000000000000000000000000000000000081526004016112c790613370565b60405180910390fd5b60006112da610ea6565b90506112fa8185600086866040518060200160405280600081525061208d565b60005b8351811015611493576000848281518110611341577f4e487b7100000000000000000000000000000000000000000000000000000000600052603260045260246000fd5b602002602001015190506000848381518110611386577f4e487b7100000000000000000000000000000000000000000000000000000000600052603260045260246000fd5b60200260200101519050600080600084815260200190815260200160002060008973ffffffffffffffffffffffffffffffffffffffff1673ffffffffffffffffffffffffffffffffffffffff16815260200190815260200160002054905081811015611427576040517f08c379a000000000000000000000000000000000000000000000000000000000815260040161141e90613270565b60405180910390fd5b81810360008085815260200190815260200160002060008a73ffffffffffffffffffffffffffffffffffffffff1673ffffffffffffffffffffffffffffffffffffffff16815260200190815260200160002081905550505050808061148b906136b3565b9150506112fd565b50600073ffffffffffffffffffffffffffffffffffffffff168473ffffffffffffffffffffffffffffffffffffffff168273ffffffffffffffffffffffffffffffffffffffff167f4a39dc06d4c0dbc64b70af90fd698a233a518aa5d07e595d983b8c0526c8f7fb868660405161150b92919061313c565b60405180910390a461153181856000868660405180602001604052806000815250612095565b50505050565b6000600360009054906101000a900473ffffffffffffffffffffffffffffffffffffffff16905081600360006101000a81548173ffffffffffffffffffffffffffffffffffffffff021916908373ffffffffffffffffffffffffffffffffffffffff1602179055508173ffffffffffffffffffffffffffffffffffffffff168173ffffffffffffffffffffffffffffffffffffffff167f8be0079c531659141344cd1fd0a4f28419497f9722a3daafe3b4186f6b6457e060405160405180910390a35050565b600073ffffffffffffffffffffffffffffffffffffffff168473ffffffffffffffffffffffffffffffffffffffff16141561166d576040517f08c379a000000000000000000000000000000000000000000000000000000000815260040161166490613390565b60405180910390fd5b6000611677610ea6565b9050600061168485612284565b9050600061169185612284565b90506116a28360008985858961208d565b8460008088815260200190815260200160002060008973ffffffffffffffffffffffffffffffffffffffff1673ffffffffffffffffffffffffffffffffffffffff16815260200190815260200160002060008282546117019190613544565b925050819055508673ffffffffffffffffffffffffffffffffffffffff16600073ffffffffffffffffffffffffffffffffffffffff168473ffffffffffffffffffffffffffffffffffffffff167fc3d58168c5ae7397731d063d5bbf3d657854427343f4c083240f7aacaa2d0f62898960405161177f9291906133cb565b60405180910390a461179683600089858589612095565b6117a58360008989898961234a565b50505050505050565b6001816000016000828254019250508190555050565b8173ffffffffffffffffffffffffffffffffffffffff168373ffffffffffffffffffffffffffffffffffffffff161415611833576040517f08c379a000000000000000000000000000000000000000000000000000000000815260040161182a90613330565b60405180910390fd5b80600160008573ffffffffffffffffffffffffffffffffffffffff1673ffffffffffffffffffffffffffffffffffffffff16815260200190815260200160002060008473ffffffffffffffffffffffffffffffffffffffff1673ffffffffffffffffffffffffffffffffffffffff16815260200190815260200160002060006101000a81548160ff0219169083151502179055508173ffffffffffffffffffffffffffffffffffffffff168373ffffffffffffffffffffffffffffffffffffffff167f17307eab39ab6107e8899845ad3d59bd9653f200f220920489ca2b5937696c31836040516119249190613173565b60405180910390a3505050565b600073ffffffffffffffffffffffffffffffffffffffff168473ffffffffffffffffffffffffffffffffffffffff1614156119a1576040517f08c379a000000000000000000000000000000000000000000000000000000000815260040161199890613390565b60405180910390fd5b81518351146119e5576040517f08c379a00000000000000000000000000000000000000000000000000000000081526004016119dc90613370565b60405180910390fd5b60006119ef610ea6565b9050611a008160008787878761208d565b60005b8451811015611b0557838181518110611a45577f4e487b7100000000000000000000000000000000000000000000000000000000600052603260045260246000fd5b6020026020010151600080878481518110611a89577f4e487b7100000000000000000000000000000000000000000000000000000000600052603260045260246000fd5b6020026020010151815260200190815260200160002060008873ffffffffffffffffffffffffffffffffffffffff1673ffffffffffffffffffffffffffffffffffffffff1681526020019081526020016000206000828254611aeb9190613544565b925050819055508080611afd906136b3565b915050611a03565b508473ffffffffffffffffffffffffffffffffffffffff16600073ffffffffffffffffffffffffffffffffffffffff168273ffffffffffffffffffffffffffffffffffffffff167f4a39dc06d4c0dbc64b70af90fd698a233a518aa5d07e595d983b8c0526c8f7fb8787604051611b7d92919061313c565b60405180910390a4611b9481600087878787612095565b611ba38160008787878761209d565b5050505050565b600073ffffffffffffffffffffffffffffffffffffffff168473ffffffffffffffffffffffffffffffffffffffff161415611c1a576040517f08c379a0000000000000000000000000000000000000000000000000000000008152600401611c11906132b0565b60405180910390fd5b6000611c24610ea6565b90506000611c3185612284565b90506000611c3e85612284565b9050611c4e83898985858961208d565b600080600088815260200190815260200160002060008a73ffffffffffffffffffffffffffffffffffffffff1673ffffffffffffffffffffffffffffffffffffffff16815260200190815260200160002054905085811015611ce5576040517f08c379a0000000000000000000000000000000000000000000000000000000008152600401611cdc906132f0565b60405180910390fd5b85810360008089815260200190815260200160002060008b73ffffffffffffffffffffffffffffffffffffffff1673ffffffffffffffffffffffffffffffffffffffff168152602001908152602001600020819055508560008089815260200190815260200160002060008a73ffffffffffffffffffffffffffffffffffffffff1673ffffffffffffffffffffffffffffffffffffffff1681526020019081526020016000206000828254611d9a9190613544565b925050819055508773ffffffffffffffffffffffffffffffffffffffff168973ffffffffffffffffffffffffffffffffffffffff168573ffffffffffffffffffffffffffffffffffffffff167fc3d58168c5ae7397731d063d5bbf3d657854427343f4c083240f7aacaa2d0f628a8a604051611e179291906133cb565b60405180910390a4611e2d848a8a86868a612095565b611e3b848a8a8a8a8a61234a565b505050505050505050565b600073ffffffffffffffffffffffffffffffffffffffff168373ffffffffffffffffffffffffffffffffffffffff161415611eb6576040517f08c379a0000000000000000000000000000000000000000000000000000000008152600401611ead906132d0565b60405180910390fd5b6000611ec0610ea6565b90506000611ecd84612284565b90506000611eda84612284565b9050611efa8387600085856040518060200160405280600081525061208d565b600080600087815260200190815260200160002060008873ffffffffffffffffffffffffffffffffffffffff1673ffffffffffffffffffffffffffffffffffffffff16815260200190815260200160002054905084811015611f91576040517f08c379a0000000000000000000000000000000000000000000000000000000008152600401611f8890613270565b60405180910390fd5b84810360008088815260200190815260200160002060008973ffffffffffffffffffffffffffffffffffffffff1673ffffffffffffffffffffffffffffffffffffffff16815260200190815260200160002081905550600073ffffffffffffffffffffffffffffffffffffffff168773ffffffffffffffffffffffffffffffffffffffff168573ffffffffffffffffffffffffffffffffffffffff167fc3d58168c5ae7397731d063d5bbf3d657854427343f4c083240f7aacaa2d0f62898960405161205e9291906133cb565b60405180910390a461208484886000868660405180602001604052806000815250612095565b50505050505050565b505050505050565b505050505050565b6120bc8473ffffffffffffffffffffffffffffffffffffffff16612531565b1561227c578373ffffffffffffffffffffffffffffffffffffffff1663bc197c8187878686866040518663ffffffff1660e01b8152600401612102959493929190613058565b602060405180830381600087803b15801561211c57600080fd5b505af192505050801561214d57506040513d601f19601f8201168201806040525081019061214a9190612c56565b60015b6121f357612159613789565b806308c379a014156121b6575061216e613c47565b8061217957506121b8565b806040517f08c379a00000000000000000000000000000000000000000000000000000000081526004016121ad919061318e565b60405180910390fd5b505b6040517f08c379a00000000000000000000000000000000000000000000000000000000081526004016121ea906131b0565b60405180910390fd5b63bc197c8160e01b7bffffffffffffffffffffffffffffffffffffffffffffffffffffffff1916817bffffffffffffffffffffffffffffffffffffffffffffffffffffffff19161461227a576040517f08c379a0000000000000000000000000000000000000000000000000000000008152600401612271906131f0565b60405180910390fd5b505b505050505050565b60606000600167ffffffffffffffff8111156122c9577f4e487b7100000000000000000000000000000000000000000000000000000000600052604160045260246000fd5b6040519080825280602002602001820160405280156122f75781602001602082028036833780820191505090505b5090508281600081518110612335577f4e487b7100000000000000000000000000000000000000000000000000000000600052603260045260246000fd5b60200260200101818152505080915050919050565b6123698473ffffffffffffffffffffffffffffffffffffffff16612531565b15612529578373ffffffffffffffffffffffffffffffffffffffff1663f23a6e6187878686866040518663ffffffff1660e01b81526004016123af9594939291906130c0565b602060405180830381600087803b1580156123c957600080fd5b505af19250505080156123fa57506040513d601f19601f820116820180604052508101906123f79190612c56565b60015b6124a057612406613789565b806308c379a01415612463575061241b613c47565b806124265750612465565b806040517f08c379a000000000000000000000000000000000000000000000000000000000815260040161245a919061318e565b60405180910390fd5b505b6040517f08c379a0000000000000000000000000000000000000000000000000000000008152600401612497906131b0565b60405180910390fd5b63f23a6e6160e01b7bffffffffffffffffffffffffffffffffffffffffffffffffffffffff1916817bffffffffffffffffffffffffffffffffffffffffffffffffffffffff191614612527576040517f08c379a000000000000000000000000000000000000000000000000000000000815260040161251e906131f0565b60405180910390fd5b505b505050505050565b6000808273ffffffffffffffffffffffffffffffffffffffff163b119050919050565b82805461256090613650565b90600052602060002090601f01602090048101928261258257600085556125c9565b82601f1061259b57805160ff19168380011785556125c9565b828001600101855582156125c9579182015b828111156125c85782518255916020019190600101906125ad565b5b5090506125d691906125da565b5090565b5b808211156125f35760008160009055506001016125db565b5090565b600061260a61260584613419565b6133f4565b9050808382526020820190508285602086028201111561262957600080fd5b60005b85811015612659578161263f888261274b565b84526020840193506020830192505060018101905061262c565b5050509392505050565b600061267661267184613445565b6133f4565b9050808382526020820190508285602086028201111561269557600080fd5b60005b858110156126c557816126ab8882612847565b845260208401935060208301925050600181019050612698565b5050509392505050565b60006126e26126dd84613471565b6133f4565b9050828152602081018484840111156126fa57600080fd5b61270584828561360e565b509392505050565b600061272061271b846134a2565b6133f4565b90508281526020810184848401111561273857600080fd5b61274384828561360e565b509392505050565b60008135905061275a81613cdd565b92915050565b600082601f83011261277157600080fd5b81356127818482602086016125f7565b91505092915050565b600082601f83011261279b57600080fd5b81356127ab848260208601612663565b91505092915050565b6000813590506127c381613cf4565b92915050565b6000813590506127d881613d0b565b92915050565b6000815190506127ed81613d0b565b92915050565b600082601f83011261280457600080fd5b81356128148482602086016126cf565b91505092915050565b600082601f83011261282e57600080fd5b813561283e84826020860161270d565b91505092915050565b60008135905061285681613d22565b92915050565b60006020828403121561286e57600080fd5b600061287c8482850161274b565b91505092915050565b6000806040838503121561289857600080fd5b60006128a68582860161274b565b92505060206128b78582860161274b565b9150509250929050565b600080600080600060a086880312156128d957600080fd5b60006128e78882890161274b565b95505060206128f88882890161274b565b945050604086013567ffffffffffffffff81111561291557600080fd5b6129218882890161278a565b935050606086013567ffffffffffffffff81111561293e57600080fd5b61294a8882890161278a565b925050608086013567ffffffffffffffff81111561296757600080fd5b612973888289016127f3565b9150509295509295909350565b600080600080600060a0868803121561299857600080fd5b60006129a68882890161274b565b95505060206129b78882890161274b565b94505060406129c888828901612847565b93505060606129d988828901612847565b925050608086013567ffffffffffffffff8111156129f657600080fd5b612a02888289016127f3565b9150509295509295909350565b600080600060608486031215612a2457600080fd5b6000612a328682870161274b565b935050602084013567ffffffffffffffff811115612a4f57600080fd5b612a5b8682870161278a565b925050604084013567ffffffffffffffff811115612a7857600080fd5b612a848682870161278a565b9150509250925092565b60008060408385031215612aa157600080fd5b6000612aaf8582860161274b565b9250506020612ac0858286016127b4565b9150509250929050565b60008060408385031215612add57600080fd5b6000612aeb8582860161274b565b9250506020612afc85828601612847565b9150509250929050565b600080600060608486031215612b1b57600080fd5b6000612b298682870161274b565b9350506020612b3a86828701612847565b9250506040612b4b86828701612847565b9150509250925092565b60008060408385031215612b6857600080fd5b600083013567ffffffffffffffff811115612b8257600080fd5b612b8e85828601612760565b925050602083013567ffffffffffffffff811115612bab57600080fd5b612bb78582860161278a565b9150509250929050565b60008060408385031215612bd457600080fd5b600083013567ffffffffffffffff811115612bee57600080fd5b612bfa8582860161278a565b925050602083013567ffffffffffffffff811115612c1757600080fd5b612c238582860161278a565b9150509250929050565b600060208284031215612c3f57600080fd5b6000612c4d848285016127c9565b91505092915050565b600060208284031215612c6857600080fd5b6000612c76848285016127de565b91505092915050565b600060208284031215612c9157600080fd5b600082013567ffffffffffffffff811115612cab57600080fd5b612cb78482850161281d565b91505092915050565b600060208284031215612cd257600080fd5b6000612ce084828501612847565b91505092915050565b6000612cf5838361301f565b60208301905092915050565b612d0a8161359a565b82525050565b6000612d1b826134e3565b612d258185613511565b9350612d30836134d3565b8060005b83811015612d61578151612d488882612ce9565b9750612d5383613504565b925050600181019050612d34565b5085935050505092915050565b612d77816135ac565b82525050565b6000612d88826134ee565b612d928185613522565b9350612da281856020860161361d565b612dab816137ab565b840191505092915050565b6000612dc1826134f9565b612dcb8185613533565b9350612ddb81856020860161361d565b612de4816137ab565b840191505092915050565b6000612dfc603483613533565b9150612e07826137c9565b604082019050919050565b6000612e1f602f83613533565b9150612e2a82613818565b604082019050919050565b6000612e42602883613533565b9150612e4d82613867565b604082019050919050565b6000612e65601b83613533565b9150612e70826138b6565b602082019050919050565b6000612e88602683613533565b9150612e93826138df565b604082019050919050565b6000612eab600f83613533565b9150612eb68261392e565b602082019050919050565b6000612ece602483613533565b9150612ed982613957565b604082019050919050565b6000612ef1602a83613533565b9150612efc826139a6565b604082019050919050565b6000612f14602583613533565b9150612f1f826139f5565b604082019050919050565b6000612f37602383613533565b9150612f4282613a44565b604082019050919050565b6000612f5a602a83613533565b9150612f6582613a93565b604082019050919050565b6000612f7d602083613533565b9150612f8882613ae2565b602082019050919050565b6000612fa0602983613533565b9150612fab82613b0b565b604082019050919050565b6000612fc3602983613533565b9150612fce82613b5a565b604082019050919050565b6000612fe6602883613533565b9150612ff182613ba9565b604082019050919050565b6000613009602183613533565b915061301482613bf8565b604082019050919050565b61302881613604565b82525050565b61303781613604565b82525050565b60006020820190506130526000830184612d01565b92915050565b600060a08201905061306d6000830188612d01565b61307a6020830187612d01565b818103604083015261308c8186612d10565b905081810360608301526130a08185612d10565b905081810360808301526130b48184612d7d565b90509695505050505050565b600060a0820190506130d56000830188612d01565b6130e26020830187612d01565b6130ef604083018661302e565b6130fc606083018561302e565b818103608083015261310e8184612d7d565b90509695505050505050565b600060208201905081810360008301526131348184612d10565b905092915050565b600060408201905081810360008301526131568185612d10565b9050818103602083015261316a8184612d10565b90509392505050565b60006020820190506131886000830184612d6e565b92915050565b600060208201905081810360008301526131a88184612db6565b905092915050565b600060208201905081810360008301526131c981612def565b9050919050565b600060208201905081810360008301526131e981612e12565b9050919050565b6000602082019050818103600083015261320981612e35565b9050919050565b6000602082019050818103600083015261322981612e58565b9050919050565b6000602082019050818103600083015261324981612e7b565b9050919050565b6000602082019050818103600083015261326981612e9e565b9050919050565b6000602082019050818103600083015261328981612ec1565b9050919050565b600060208201905081810360008301526132a981612ee4565b9050919050565b600060208201905081810360008301526132c981612f07565b9050919050565b600060208201905081810360008301526132e981612f2a565b9050919050565b6000602082019050818103600083015261330981612f4d565b9050919050565b6000602082019050818103600083015261332981612f70565b9050919050565b6000602082019050818103600083015261334981612f93565b9050919050565b6000602082019050818103600083015261336981612fb6565b9050919050565b6000602082019050818103600083015261338981612fd9565b9050919050565b600060208201905081810360008301526133a981612ffc565b9050919050565b60006020820190506133c5600083018461302e565b92915050565b60006040820190506133e0600083018561302e565b6133ed602083018461302e565b9392505050565b60006133fe61340f565b905061340a8282613682565b919050565b6000604051905090565b600067ffffffffffffffff8211156134345761343361375a565b5b602082029050602081019050919050565b600067ffffffffffffffff8211156134605761345f61375a565b5b602082029050602081019050919050565b600067ffffffffffffffff82111561348c5761348b61375a565b5b613495826137ab565b9050602081019050919050565b600067ffffffffffffffff8211156134bd576134bc61375a565b5b6134c6826137ab565b9050602081019050919050565b6000819050602082019050919050565b600081519050919050565b600081519050919050565b600081519050919050565b6000602082019050919050565b600082825260208201905092915050565b600082825260208201905092915050565b600082825260208201905092915050565b600061354f82613604565b915061355a83613604565b9250827fffffffffffffffffffffffffffffffffffffffffffffffffffffffffffffffff0382111561358f5761358e6136fc565b5b828201905092915050565b60006135a5826135e4565b9050919050565b60008115159050919050565b60007fffffffff0000000000000000000000000000000000000000000000000000000082169050919050565b600073ffffffffffffffffffffffffffffffffffffffff82169050919050565b6000819050919050565b82818337600083830152505050565b60005b8381101561363b578082015181840152602081019050613620565b8381111561364a576000848401525b50505050565b6000600282049050600182168061366857607f821691505b6020821081141561367c5761367b61372b565b5b50919050565b61368b826137ab565b810181811067ffffffffffffffff821117156136aa576136a961375a565b5b80604052505050565b60006136be82613604565b91507fffffffffffffffffffffffffffffffffffffffffffffffffffffffffffffffff8214156136f1576136f06136fc565b5b600182019050919050565b7f4e487b7100000000000000000000000000000000000000000000000000000000600052601160045260246000fd5b7f4e487b7100000000000000000000000000000000000000000000000000000000600052602260045260246000fd5b7f4e487b7100000000000000000000000000000000000000000000000000000000600052604160045260246000fd5b600060033d11156137a85760046000803e6137a56000516137bc565b90505b90565b6000601f19601f8301169050919050565b60008160e01c9050919050565b7f455243313135353a207472616e7366657220746f206e6f6e204552433131353560008201527f526563656976657220696d706c656d656e746572000000000000000000000000602082015250565b7f455243313135353a2063616c6c6572206973206e6f7420746f6b656e206f776e60008201527f6572206e6f7220617070726f7665640000000000000000000000000000000000602082015250565b7f455243313135353a204552433131353552656365697665722072656a6563746560008201527f6420746f6b656e73000000000000000000000000000000000000000000000000602082015250565b7f436f756e7465723a2064656372656d656e74206f766572666c6f770000000000600082015250565b7f4f776e61626c653a206e6577206f776e657220697320746865207a65726f206160008201527f6464726573730000000000000000000000000000000000000000000000000000602082015250565b7f55524920616c7265616479207365740000000000000000000000000000000000600082015250565b7f455243313135353a206275726e20616d6f756e7420657863656564732062616c60008201527f616e636500000000000000000000000000000000000000000000000000000000602082015250565b7f455243313135353a2061646472657373207a65726f206973206e6f742061207660008201527f616c6964206f776e657200000000000000000000000000000000000000000000602082015250565b7f455243313135353a207472616e7366657220746f20746865207a65726f20616460008201527f6472657373000000000000000000000000000000000000000000000000000000602082015250565b7f455243313135353a206275726e2066726f6d20746865207a65726f206164647260008201527f6573730000000000000000000000000000000000000000000000000000000000602082015250565b7f455243313135353a20696e73756666696369656e742062616c616e636520666f60008201527f72207472616e7366657200000000000000000000000000000000000000000000602082015250565b7f4f776e61626c653a2063616c6c6572206973206e6f7420746865206f776e6572600082015250565b7f455243313135353a2073657474696e6720617070726f76616c2073746174757360008201527f20666f722073656c660000000000000000000000000000000000000000000000602082015250565b7f455243313135353a206163636f756e747320616e6420696473206c656e67746860008201527f206d69736d617463680000000000000000000000000000000000000000000000602082015250565b7f455243313135353a2069647320616e6420616d6f756e7473206c656e6774682060008201527f6d69736d61746368000000000000000000000000000000000000000000000000602082015250565b7f455243313135353a206d696e7420746f20746865207a65726f2061646472657360008201527f7300000000000000000000000000000000000000000000000000000000000000602082015250565b600060443d1015613c5757613cda565b613c5f61340f565b60043d036004823e80513d602482011167ffffffffffffffff82111715613c87575050613cda565b808201805167ffffffffffffffff811115613ca55750505050613cda565b80602083010160043d038501811115613cc2575050505050613cda565b613cd182602001850186613682565b82955050505050505b90565b613ce68161359a565b8114613cf157600080fd5b50565b613cfd816135ac565b8114613d0857600080fd5b50565b613d14816135b8565b8114613d1f57600080fd5b50565b613d2b81613604565b8114613d3657600080fd5b5056fea26469706673582212203a1a35219b07db6ba44038641461ee451fd2511d59a8300393a8a134229a44ad64736f6c63430008040033",
  "linkReferences": {},
  "deployedLinkReferences": {}
}