{
  "_format": "hh-sol-artifact-1",
  "contractName": "Hepier",
  "sourceName": "contracts/hepier.sol",
  "abi": [
    {
      "inputs": [],
      "stateMutability": "nonpayable",
      "type": "constructor"
    },
    {
      "anonymous": false,
      "inputs": [
        {
          "indexed": true,
          "internalType": "address",
          "name": "account",
          "type": "address"
        },
        {
          "indexed": true,
          "internalType": "address",
          "name": "operator",
          "type": "address"
        },
        {
          "indexed": false,
          "internalType": "bool",
          "name": "approved",
          "type": "bool"
        }
      ],
      "name": "ApprovalForAll",
      "type": "event"
    },
    {
      "anonymous": false,
      "inputs": [
        {
          "indexed": false,
          "internalType": "address",
          "name": "operator",
          "type": "address"
        }
      ],
      "name": "NewOperatorAddress",
      "type": "event"
    },
    {
      "anonymous": false,
      "inputs": [
        {
          "indexed": true,
          "internalType": "address",
          "name": "previousOwner",
          "type": "address"
        },
        {
          "indexed": true,
          "internalType": "address",
          "name": "newOwner",
          "type": "address"
        }
      ],
      "name": "OwnershipTransferred",
      "type": "event"
    },
    {
      "anonymous": false,
      "inputs": [
        {
          "indexed": true,
          "internalType": "address",
          "name": "operator",
          "type": "address"
        },
        {
          "indexed": true,
          "internalType": "address",
          "name": "from",
          "type": "address"
        },
        {
          "indexed": true,
          "internalType": "address",
          "name": "to",
          "type": "address"
        },
        {
          "indexed": false,
          "internalType": "uint256[]",
          "name": "ids",
          "type": "uint256[]"
        },
        {
          "indexed": false,
          "internalType": "uint256[]",
          "name": "values",
          "type": "uint256[]"
        }
      ],
      "name": "TransferBatch",
      "type": "event"
    },
    {
      "anonymous": false,
      "inputs": [
        {
          "indexed": true,
          "internalType": "address",
          "name": "operator",
          "type": "address"
        },
        {
          "indexed": true,
          "internalType": "address",
          "name": "from",
          "type": "address"
        },
        {
          "indexed": true,
          "internalType": "address",
          "name": "to",
          "type": "address"
        },
        {
          "indexed": false,
          "internalType": "uint256",
          "name": "id",
          "type": "uint256"
        },
        {
          "indexed": false,
          "internalType": "uint256",
          "name": "value",
          "type": "uint256"
        }
      ],
      "name": "TransferSingle",
      "type": "event"
    },
    {
      "anonymous": false,
      "inputs": [
        {
          "indexed": false,
          "internalType": "string",
          "name": "value",
          "type": "string"
        },
        {
          "indexed": true,
          "internalType": "uint256",
          "name": "id",
          "type": "uint256"
        }
      ],
      "name": "URI",
      "type": "event"
    },
    {
      "inputs": [
        {
          "internalType": "address",
          "name": "account",
          "type": "address"
        },
        {
          "internalType": "uint256",
          "name": "id",
          "type": "uint256"
        }
      ],
      "name": "balanceOf",
      "outputs": [
        {
          "internalType": "uint256",
          "name": "",
          "type": "uint256"
        }
      ],
      "stateMutability": "view",
      "type": "function"
    },
    {
      "inputs": [
        {
          "internalType": "address[]",
          "name": "accounts",
          "type": "address[]"
        },
        {
          "internalType": "uint256[]",
          "name": "ids",
          "type": "uint256[]"
        }
      ],
      "name": "balanceOfBatch",
      "outputs": [
        {
          "internalType": "uint256[]",
          "name": "",
          "type": "uint256[]"
        }
      ],
      "stateMutability": "view",
      "type": "function"
    },
    {
      "inputs": [
        {
          "internalType": "address",
          "name": "account",
          "type": "address"
        },
        {
          "internalType": "uint256",
          "name": "id",
          "type": "uint256"
        },
        {
          "internalType": "uint256",
          "name": "value",
          "type": "uint256"
        }
      ],
      "name": "burn",
      "outputs": [],
      "stateMutability": "nonpayable",
      "type": "function"
    },
    {
      "inputs": [
        {
          "internalType": "address",
          "name": "account",
          "type": "address"
        },
        {
          "internalType": "uint256[]",
          "name": "ids",
          "type": "uint256[]"
        },
        {
          "internalType": "uint256[]",
          "name": "values",
          "type": "uint256[]"
        }
      ],
      "name": "burnBatch",
      "outputs": [],
      "stateMutability": "nonpayable",
      "type": "function"
    },
    {
      "inputs": [
        {
          "internalType": "address",
          "name": "account",
          "type": "address"
        },
        {
          "internalType": "address",
          "name": "operator",
          "type": "address"
        }
      ],
      "name": "isApprovedForAll",
      "outputs": [
        {
          "internalType": "bool",
          "name": "",
          "type": "bool"
        }
      ],
      "stateMutability": "view",
      "type": "function"
    },
    {
      "inputs": [
        {
          "internalType": "uint256",
          "name": "amount",
          "type": "uint256"
        }
      ],
      "name": "mint",
      "outputs": [],
      "stateMutability": "nonpayable",
      "type": "function"
    },
    {
      "inputs": [
        {
          "internalType": "uint256[]",
          "name": "ids",
          "type": "uint256[]"
        },
        {
          "internalType": "uint256[]",
          "name": "amounts",
          "type": "uint256[]"
        }
      ],
      "name": "mintBatch",
      "outputs": [],
      "stateMutability": "nonpayable",
      "type": "function"
    },
    {
      "inputs": [],
      "name": "name",
      "outputs": [
        {
          "internalType": "string",
          "name": "",
          "type": "string"
        }
      ],
      "stateMutability": "view",
      "type": "function"
    },
    {
      "inputs": [],
      "name": "operatorAddress",
      "outputs": [
        {
          "internalType": "address",
          "name": "",
          "type": "address"
        }
      ],
      "stateMutability": "view",
      "type": "function"
    },
    {
      "inputs": [],
      "name": "owner",
      "outputs": [
        {
          "internalType": "address",
          "name": "",
          "type": "address"
        }
      ],
      "stateMutability": "view",
      "type": "function"
    },
    {
      "inputs": [],
      "name": "renounceOwnership",
      "outputs": [],
      "stateMutability": "nonpayable",
      "type": "function"
    },
    {
      "inputs": [
        {
          "internalType": "address",
          "name": "from",
          "type": "address"
        },
        {
          "internalType": "address",
          "name": "to",
          "type": "address"
        },
        {
          "internalType": "uint256[]",
          "name": "ids",
          "type": "uint256[]"
        },
        {
          "internalType": "uint256[]",
          "name": "amounts",
          "type": "uint256[]"
        },
        {
          "internalType": "bytes",
          "name": "data",
          "type": "bytes"
        }
      ],
      "name": "safeBatchTransferFrom",
      "outputs": [],
      "stateMutability": "nonpayable",
      "type": "function"
    },
    {
      "inputs": [
        {
          "internalType": "address",
          "name": "from",
          "type": "address"
        },
        {
          "internalType": "address",
          "name": "to",
          "type": "address"
        },
        {
          "internalType": "uint256",
          "name": "id",
          "type": "uint256"
        },
        {
          "internalType": "uint256",
          "name": "amount",
          "type": "uint256"
        },
        {
          "internalType": "bytes",
          "name": "data",
          "type": "bytes"
        }
      ],
      "name": "safeTransferFrom",
      "outputs": [],
      "stateMutability": "nonpayable",
      "type": "function"
    },
    {
      "inputs": [
        {
          "internalType": "address",
          "name": "operator",
          "type": "address"
        },
        {
          "internalType": "bool",
          "name": "approved",
          "type": "bool"
        }
      ],
      "name": "setApprovalForAll",
      "outputs": [],
      "stateMutability": "nonpayable",
      "type": "function"
    },
    {
      "inputs": [
        {
          "internalType": "address",
          "name": "_operatorAddress",
          "type": "address"
        }
      ],
      "name": "setOperator",
      "outputs": [],
      "stateMutability": "nonpayable",
      "type": "function"
    },
    {
      "inputs": [
        {
          "internalType": "string",
          "name": "newuri",
          "type": "string"
        }
      ],
      "name": "setURI",
      "outputs": [],
      "stateMutability": "nonpayable",
      "type": "function"
    },
    {
      "inputs": [
        {
          "internalType": "bytes4",
          "name": "interfaceId",
          "type": "bytes4"
        }
      ],
      "name": "supportsInterface",
      "outputs": [
        {
          "internalType": "bool",
          "name": "",
          "type": "bool"
        }
      ],
      "stateMutability": "view",
      "type": "function"
    },
    {
      "inputs": [
        {
          "internalType": "uint256",
          "name": "",
          "type": "uint256"
        }
      ],
      "name": "tokenURI",
      "outputs": [
        {
          "internalType": "string",
          "name": "",
          "type": "string"
        }
      ],
      "stateMutability": "view",
      "type": "function"
    },
    {
      "inputs": [
        {
          "internalType": "address",
          "name": "to",
          "type": "address"
        },
        {
          "internalType": "uint256",
          "name": "amount",
          "type": "uint256"
        }
      ],
      "name": "transfer",
      "outputs": [],
      "stateMutability": "nonpayable",
      "type": "function"
    },
    {
      "inputs": [
        {
          "internalType": "address",
          "name": "newOwner",
          "type": "address"
        }
      ],
      "name": "transferOwnership",
      "outputs": [],
      "stateMutability": "nonpayable",
      "type": "function"
    },
    {
      "inputs": [
        {
          "internalType": "uint256",
          "name": "_id",
          "type": "uint256"
        }
      ],
      "name": "uri",
      "outputs": [
        {
          "internalType": "string",
          "name": "",
          "type": "string"
        }
      ],
      "stateMutability": "view",
      "type": "function"
    }
  ],
  "bytecode": "0x60806040526040518060400160405280601181526020017f48657069657220436f6c6c656374696f6e0000000000000000000000000000008152506005908051906020019062000051929190620001b8565b503480156200005f57600080fd5b506040518060400160405280600381526020017f4845500000000000000000000000000000000000000000000000000000000000815250620000a781620000ce60201b60201c565b50620000c8620000bc620000ea60201b60201c565b620000f260201b60201c565b620002cd565b8060029080519060200190620000e6929190620001b8565b5050565b600033905090565b6000600360009054906101000a900473ffffffffffffffffffffffffffffffffffffffff16905081600360006101000a81548173ffffffffffffffffffffffffffffffffffffffff021916908373ffffffffffffffffffffffffffffffffffffffff1602179055508173ffffffffffffffffffffffffffffffffffffffff168173ffffffffffffffffffffffffffffffffffffffff167f8be0079c531659141344cd1fd0a4f28419497f9722a3daafe3b4186f6b6457e060405160405180910390a35050565b828054620001c69062000268565b90600052602060002090601f016020900481019282620001ea576000855562000236565b82601f106200020557805160ff191683800117855562000236565b8280016001018555821562000236579182015b828111156200023557825182559160200191906001019062000218565b5b50905062000245919062000249565b5090565b5b80821115620002645760008160009055506001016200024a565b5090565b600060028204905060018216806200028157607f821691505b602082108114156200029857620002976200029e565b5b50919050565b7f4e487b7100000000000000000000000000000000000000000000000000000000600052602260045260246000fd5b6141b580620002dd6000396000f3fe608060405234801561001057600080fd5b50600436106101365760003560e01c80638da5cb5b116100b8578063c87b56dd1161007c578063c87b56dd14610323578063d351cfdc14610353578063e985e9c51461036f578063f242432a1461039f578063f2fde38b146103bb578063f5298aca146103d757610136565b80638da5cb5b14610295578063a0712d68146102b3578063a22cb465146102cf578063a9059cbb146102eb578063b3ab15fb1461030757610136565b8063127effb2116100ff578063127effb2146102055780632eb2c2d6146102235780634e1273f41461023f5780636b20c4541461026f578063715018a61461028b57610136565b8062fdd58e1461013b57806301ffc9a71461016b57806302fe53051461019b57806306fdde03146101b75780630e89341c146101d5575b600080fd5b61015560048036038101906101509190612ea4565b6103f3565b60405161016291906137cd565b60405180910390f35b61018560048036038101906101809190613007565b6104bc565b6040516101929190613570565b60405180910390f35b6101b560048036038101906101b09190613059565b61059e565b005b6101bf6106d4565b6040516101cc919061358b565b60405180910390f35b6101ef60048036038101906101ea919061309a565b610762565b6040516101fc919061358b565b60405180910390f35b61020d610807565b60405161021a919061343a565b60405180910390f35b61023d60048036038101906102389190612c9b565b61082d565b005b61025960048036038101906102549190612f2f565b6108ce565b6040516102669190613517565b60405180910390f35b61028960048036038101906102849190612de9565b610a7f565b005b610293610b1c565b005b61029d610b30565b6040516102aa919061343a565b60405180910390f35b6102cd60048036038101906102c8919061309a565b610b5a565b005b6102e960048036038101906102e49190612e68565b610c17565b005b61030560048036038101906103009190612ea4565b610c2d565b005b610321600480360381019061031c9190612c36565b610cf2565b005b61033d6004803603810190610338919061309a565b610de5565b60405161034a919061358b565b60405180910390f35b61036d60048036038101906103689190612f9b565b610e85565b005b61038960048036038101906103849190612c5f565b610f34565b6040516103969190613570565b60405180910390f35b6103b960048036038101906103b49190612d5a565b610fc8565b005b6103d560048036038101906103d09190612c36565b611069565b005b6103f160048036038101906103ec9190612ee0565b6110ed565b005b60008073ffffffffffffffffffffffffffffffffffffffff168373ffffffffffffffffffffffffffffffffffffffff161415610464576040517f08c379a000000000000000000000000000000000000000000000000000000000815260040161045b9061366d565b60405180910390fd5b60008083815260200190815260200160002060008473ffffffffffffffffffffffffffffffffffffffff1673ffffffffffffffffffffffffffffffffffffffff16815260200190815260200160002054905092915050565b60007fd9b67a26000000000000000000000000000000000000000000000000000000007bffffffffffffffffffffffffffffffffffffffffffffffffffffffff1916827bffffffffffffffffffffffffffffffffffffffffffffffffffffffff1916148061058757507f0e89341c000000000000000000000000000000000000000000000000000000007bffffffffffffffffffffffffffffffffffffffffffffffffffffffff1916827bffffffffffffffffffffffffffffffffffffffffffffffffffffffff1916145b8061059757506105968261118a565b5b9050919050565b600660009054906101000a900473ffffffffffffffffffffffffffffffffffffffff1673ffffffffffffffffffffffffffffffffffffffff163373ffffffffffffffffffffffffffffffffffffffff161461062e576040517f08c379a0000000000000000000000000000000000000000000000000000000008152600401610625906137ad565b60405180910390fd5b600061063a60046111f4565b9050600060076000838152602001908152602001600020805461065c90613a6d565b90501461069e576040517f08c379a00000000000000000000000000000000000000000000000000000000081526004016106959061362d565b60405180910390fd5b816007600083815260200190815260200160002090805190602001906106c592919061292e565b506106d06004611202565b5050565b600580546106e190613a6d565b80601f016020809104026020016040519081016040528092919081815260200182805461070d90613a6d565b801561075a5780601f1061072f5761010080835404028352916020019161075a565b820191906000526020600020905b81548152906001019060200180831161073d57829003601f168201915b505050505081565b606060076000838152602001908152602001600020805461078290613a6d565b80601f01602080910402602001604051908101604052809291908181526020018280546107ae90613a6d565b80156107fb5780601f106107d0576101008083540402835291602001916107fb565b820191906000526020600020905b8154815290600101906020018083116107de57829003601f168201915b50505050509050919050565b600660009054906101000a900473ffffffffffffffffffffffffffffffffffffffff1681565b610835611218565b73ffffffffffffffffffffffffffffffffffffffff168573ffffffffffffffffffffffffffffffffffffffff16148061087b575061087a85610875611218565b610f34565b5b6108ba576040517f08c379a00000000000000000000000000000000000000000000000000000000081526004016108b1906135cd565b60405180910390fd5b6108c78585858585611220565b5050505050565b60608151835114610914576040517f08c379a000000000000000000000000000000000000000000000000000000000815260040161090b9061374d565b60405180910390fd5b6000835167ffffffffffffffff811115610957577f4e487b7100000000000000000000000000000000000000000000000000000000600052604160045260246000fd5b6040519080825280602002602001820160405280156109855781602001602082028036833780820191505090505b50905060005b8451811015610a7457610a1e8582815181106109d0577f4e487b7100000000000000000000000000000000000000000000000000000000600052603260045260246000fd5b6020026020010151858381518110610a11577f4e487b7100000000000000000000000000000000000000000000000000000000600052603260045260246000fd5b60200260200101516103f3565b828281518110610a57577f4e487b7100000000000000000000000000000000000000000000000000000000600052603260045260246000fd5b60200260200101818152505080610a6d90613ad0565b905061098b565b508091505092915050565b610a87611218565b73ffffffffffffffffffffffffffffffffffffffff168373ffffffffffffffffffffffffffffffffffffffff161480610acd5750610acc83610ac7611218565b610f34565b5b610b0c576040517f08c379a0000000000000000000000000000000000000000000000000000000008152600401610b03906135cd565b60405180910390fd5b610b1783838361158e565b505050565b610b246118a9565b610b2e6000611927565b565b6000600360009054906101000a900473ffffffffffffffffffffffffffffffffffffffff16905090565b600660009054906101000a900473ffffffffffffffffffffffffffffffffffffffff1673ffffffffffffffffffffffffffffffffffffffff163373ffffffffffffffffffffffffffffffffffffffff1614610bea576040517f08c379a0000000000000000000000000000000000000000000000000000000008152600401610be1906137ad565b60405180910390fd5b6000610bf660046111f4565b9050610c13338284604051806020016040528060008152506119ed565b5050565b610c29610c22611218565b8383611b9e565b5050565b600660009054906101000a900473ffffffffffffffffffffffffffffffffffffffff1673ffffffffffffffffffffffffffffffffffffffff163373ffffffffffffffffffffffffffffffffffffffff1614610cbd576040517f08c379a0000000000000000000000000000000000000000000000000000000008152600401610cb4906137ad565b60405180910390fd5b60003390506000610cce60046111f4565b9050610cec8285838660405180602001604052806000815250610fc8565b50505050565b610cfa6118a9565b600073ffffffffffffffffffffffffffffffffffffffff168173ffffffffffffffffffffffffffffffffffffffff161415610d6a576040517f08c379a0000000000000000000000000000000000000000000000000000000008152600401610d619061368d565b60405180910390fd5b80600660006101000a81548173ffffffffffffffffffffffffffffffffffffffff021916908373ffffffffffffffffffffffffffffffffffffffff1602179055507fc47d127c07bdd56c5ccba00463ce3bd3c1bca71b4670eea6e5d0c02e4aa156e281604051610dda919061343a565b60405180910390a150565b60076020528060005260406000206000915090508054610e0490613a6d565b80601f0160208091040260200160405190810160405280929190818152602001828054610e3090613a6d565b8015610e7d5780601f10610e5257610100808354040283529160200191610e7d565b820191906000526020600020905b815481529060010190602001808311610e6057829003601f168201915b505050505081565b600660009054906101000a900473ffffffffffffffffffffffffffffffffffffffff1673ffffffffffffffffffffffffffffffffffffffff163373ffffffffffffffffffffffffffffffffffffffff1614610f15576040517f08c379a0000000000000000000000000000000000000000000000000000000008152600401610f0c906137ad565b60405180910390fd5b610f3033838360405180602001604052806000815250611d0b565b5050565b6000600160008473ffffffffffffffffffffffffffffffffffffffff1673ffffffffffffffffffffffffffffffffffffffff16815260200190815260200160002060008373ffffffffffffffffffffffffffffffffffffffff1673ffffffffffffffffffffffffffffffffffffffff16815260200190815260200160002060009054906101000a900460ff16905092915050565b610fd0611218565b73ffffffffffffffffffffffffffffffffffffffff168573ffffffffffffffffffffffffffffffffffffffff161480611016575061101585611010611218565b610f34565b5b611055576040517f08c379a000000000000000000000000000000000000000000000000000000000815260040161104c906135cd565b60405180910390fd5b6110628585858585611f84565b5050505050565b6110716118a9565b600073ffffffffffffffffffffffffffffffffffffffff168173ffffffffffffffffffffffffffffffffffffffff1614156110e1576040517f08c379a00000000000000000000000000000000000000000000000000000000081526004016110d89061360d565b60405180910390fd5b6110ea81611927565b50565b6110f5611218565b73ffffffffffffffffffffffffffffffffffffffff168373ffffffffffffffffffffffffffffffffffffffff16148061113b575061113a83611135611218565b610f34565b5b61117a576040517f08c379a0000000000000000000000000000000000000000000000000000000008152600401611171906135cd565b60405180910390fd5b611185838383612220565b505050565b60007f01ffc9a7000000000000000000000000000000000000000000000000000000007bffffffffffffffffffffffffffffffffffffffffffffffffffffffff1916827bffffffffffffffffffffffffffffffffffffffffffffffffffffffff1916149050919050565b600081600001549050919050565b6001816000016000828254019250508190555050565b600033905090565b8151835114611264576040517f08c379a000000000000000000000000000000000000000000000000000000000815260040161125b9061376d565b60405180910390fd5b600073ffffffffffffffffffffffffffffffffffffffff168473ffffffffffffffffffffffffffffffffffffffff1614156112d4576040517f08c379a00000000000000000000000000000000000000000000000000000000081526004016112cb906136ad565b60405180910390fd5b60006112de611218565b90506112ee818787878787612467565b60005b84518110156114eb576000858281518110611335577f4e487b7100000000000000000000000000000000000000000000000000000000600052603260045260246000fd5b60200260200101519050600085838151811061137a577f4e487b7100000000000000000000000000000000000000000000000000000000600052603260045260246000fd5b60200260200101519050600080600084815260200190815260200160002060008b73ffffffffffffffffffffffffffffffffffffffff1673ffffffffffffffffffffffffffffffffffffffff1681526020019081526020016000205490508181101561141b576040517f08c379a0000000000000000000000000000000000000000000000000000000008152600401611412906136ed565b60405180910390fd5b81810360008085815260200190815260200160002060008c73ffffffffffffffffffffffffffffffffffffffff1673ffffffffffffffffffffffffffffffffffffffff168152602001908152602001600020819055508160008085815260200190815260200160002060008b73ffffffffffffffffffffffffffffffffffffffff1673ffffffffffffffffffffffffffffffffffffffff16815260200190815260200160002060008282546114d09190613961565b92505081905550505050806114e490613ad0565b90506112f1565b508473ffffffffffffffffffffffffffffffffffffffff168673ffffffffffffffffffffffffffffffffffffffff168273ffffffffffffffffffffffffffffffffffffffff167f4a39dc06d4c0dbc64b70af90fd698a233a518aa5d07e595d983b8c0526c8f7fb8787604051611562929190613539565b60405180910390a461157881878787878761246f565b611586818787878787612477565b505050505050565b600073ffffffffffffffffffffffffffffffffffffffff168373ffffffffffffffffffffffffffffffffffffffff1614156115fe576040517f08c379a00000000000000000000000000000000000000000000000000000000081526004016115f5906136cd565b60405180910390fd5b8051825114611642576040517f08c379a00000000000000000000000000000000000000000000000000000000081526004016116399061376d565b60405180910390fd5b600061164c611218565b905061166c81856000868660405180602001604052806000815250612467565b60005b83518110156118055760008482815181106116b3577f4e487b7100000000000000000000000000000000000000000000000000000000600052603260045260246000fd5b6020026020010151905060008483815181106116f8577f4e487b7100000000000000000000000000000000000000000000000000000000600052603260045260246000fd5b60200260200101519050600080600084815260200190815260200160002060008973ffffffffffffffffffffffffffffffffffffffff1673ffffffffffffffffffffffffffffffffffffffff16815260200190815260200160002054905081811015611799576040517f08c379a00000000000000000000000000000000000000000000000000000000081526004016117909061364d565b60405180910390fd5b81810360008085815260200190815260200160002060008a73ffffffffffffffffffffffffffffffffffffffff1673ffffffffffffffffffffffffffffffffffffffff1681526020019081526020016000208190555050505080806117fd90613ad0565b91505061166f565b50600073ffffffffffffffffffffffffffffffffffffffff168473ffffffffffffffffffffffffffffffffffffffff168273ffffffffffffffffffffffffffffffffffffffff167f4a39dc06d4c0dbc64b70af90fd698a233a518aa5d07e595d983b8c0526c8f7fb868660405161187d929190613539565b60405180910390a46118a38185600086866040518060200160405280600081525061246f565b50505050565b6118b1611218565b73ffffffffffffffffffffffffffffffffffffffff166118cf610b30565b73ffffffffffffffffffffffffffffffffffffffff1614611925576040517f08c379a000000000000000000000000000000000000000000000000000000000815260040161191c9061370d565b60405180910390fd5b565b6000600360009054906101000a900473ffffffffffffffffffffffffffffffffffffffff16905081600360006101000a81548173ffffffffffffffffffffffffffffffffffffffff021916908373ffffffffffffffffffffffffffffffffffffffff1602179055508173ffffffffffffffffffffffffffffffffffffffff168173ffffffffffffffffffffffffffffffffffffffff167f8be0079c531659141344cd1fd0a4f28419497f9722a3daafe3b4186f6b6457e060405160405180910390a35050565b600073ffffffffffffffffffffffffffffffffffffffff168473ffffffffffffffffffffffffffffffffffffffff161415611a5d576040517f08c379a0000000000000000000000000000000000000000000000000000000008152600401611a549061378d565b60405180910390fd5b6000611a67611218565b90506000611a748561265e565b90506000611a818561265e565b9050611a9283600089858589612467565b8460008088815260200190815260200160002060008973ffffffffffffffffffffffffffffffffffffffff1673ffffffffffffffffffffffffffffffffffffffff1681526020019081526020016000206000828254611af19190613961565b925050819055508673ffffffffffffffffffffffffffffffffffffffff16600073ffffffffffffffffffffffffffffffffffffffff168473ffffffffffffffffffffffffffffffffffffffff167fc3d58168c5ae7397731d063d5bbf3d657854427343f4c083240f7aacaa2d0f628989604051611b6f9291906137e8565b60405180910390a4611b868360008985858961246f565b611b9583600089898989612724565b50505050505050565b8173ffffffffffffffffffffffffffffffffffffffff168373ffffffffffffffffffffffffffffffffffffffff161415611c0d576040517f08c379a0000000000000000000000000000000000000000000000000000000008152600401611c049061372d565b60405180910390fd5b80600160008573ffffffffffffffffffffffffffffffffffffffff1673ffffffffffffffffffffffffffffffffffffffff16815260200190815260200160002060008473ffffffffffffffffffffffffffffffffffffffff1673ffffffffffffffffffffffffffffffffffffffff16815260200190815260200160002060006101000a81548160ff0219169083151502179055508173ffffffffffffffffffffffffffffffffffffffff168373ffffffffffffffffffffffffffffffffffffffff167f17307eab39ab6107e8899845ad3d59bd9653f200f220920489ca2b5937696c3183604051611cfe9190613570565b60405180910390a3505050565b600073ffffffffffffffffffffffffffffffffffffffff168473ffffffffffffffffffffffffffffffffffffffff161415611d7b576040517f08c379a0000000000000000000000000000000000000000000000000000000008152600401611d729061378d565b60405180910390fd5b8151835114611dbf576040517f08c379a0000000000000000000000000000000000000000000000000000000008152600401611db69061376d565b60405180910390fd5b6000611dc9611218565b9050611dda81600087878787612467565b60005b8451811015611edf57838181518110611e1f577f4e487b7100000000000000000000000000000000000000000000000000000000600052603260045260246000fd5b6020026020010151600080878481518110611e63577f4e487b7100000000000000000000000000000000000000000000000000000000600052603260045260246000fd5b6020026020010151815260200190815260200160002060008873ffffffffffffffffffffffffffffffffffffffff1673ffffffffffffffffffffffffffffffffffffffff1681526020019081526020016000206000828254611ec59190613961565b925050819055508080611ed790613ad0565b915050611ddd565b508473ffffffffffffffffffffffffffffffffffffffff16600073ffffffffffffffffffffffffffffffffffffffff168273ffffffffffffffffffffffffffffffffffffffff167f4a39dc06d4c0dbc64b70af90fd698a233a518aa5d07e595d983b8c0526c8f7fb8787604051611f57929190613539565b60405180910390a4611f6e8160008787878761246f565b611f7d81600087878787612477565b5050505050565b600073ffffffffffffffffffffffffffffffffffffffff168473ffffffffffffffffffffffffffffffffffffffff161415611ff4576040517f08c379a0000000000000000000000000000000000000000000000000000000008152600401611feb906136ad565b60405180910390fd5b6000611ffe611218565b9050600061200b8561265e565b905060006120188561265e565b9050612028838989858589612467565b600080600088815260200190815260200160002060008a73ffffffffffffffffffffffffffffffffffffffff1673ffffffffffffffffffffffffffffffffffffffff168152602001908152602001600020549050858110156120bf576040517f08c379a00000000000000000000000000000000000000000000000000000000081526004016120b6906136ed565b60405180910390fd5b85810360008089815260200190815260200160002060008b73ffffffffffffffffffffffffffffffffffffffff1673ffffffffffffffffffffffffffffffffffffffff168152602001908152602001600020819055508560008089815260200190815260200160002060008a73ffffffffffffffffffffffffffffffffffffffff1673ffffffffffffffffffffffffffffffffffffffff16815260200190815260200160002060008282546121749190613961565b925050819055508773ffffffffffffffffffffffffffffffffffffffff168973ffffffffffffffffffffffffffffffffffffffff168573ffffffffffffffffffffffffffffffffffffffff167fc3d58168c5ae7397731d063d5bbf3d657854427343f4c083240f7aacaa2d0f628a8a6040516121f19291906137e8565b60405180910390a4612207848a8a86868a61246f565b612215848a8a8a8a8a612724565b505050505050505050565b600073ffffffffffffffffffffffffffffffffffffffff168373ffffffffffffffffffffffffffffffffffffffff161415612290576040517f08c379a0000000000000000000000000000000000000000000000000000000008152600401612287906136cd565b60405180910390fd5b600061229a611218565b905060006122a78461265e565b905060006122b48461265e565b90506122d483876000858560405180602001604052806000815250612467565b600080600087815260200190815260200160002060008873ffffffffffffffffffffffffffffffffffffffff1673ffffffffffffffffffffffffffffffffffffffff1681526020019081526020016000205490508481101561236b576040517f08c379a00000000000000000000000000000000000000000000000000000000081526004016123629061364d565b60405180910390fd5b84810360008088815260200190815260200160002060008973ffffffffffffffffffffffffffffffffffffffff1673ffffffffffffffffffffffffffffffffffffffff16815260200190815260200160002081905550600073ffffffffffffffffffffffffffffffffffffffff168773ffffffffffffffffffffffffffffffffffffffff168573ffffffffffffffffffffffffffffffffffffffff167fc3d58168c5ae7397731d063d5bbf3d657854427343f4c083240f7aacaa2d0f6289896040516124389291906137e8565b60405180910390a461245e8488600086866040518060200160405280600081525061246f565b50505050505050565b505050505050565b505050505050565b6124968473ffffffffffffffffffffffffffffffffffffffff1661290b565b15612656578373ffffffffffffffffffffffffffffffffffffffff1663bc197c8187878686866040518663ffffffff1660e01b81526004016124dc959493929190613455565b602060405180830381600087803b1580156124f657600080fd5b505af192505050801561252757506040513d601f19601f820116820180604052508101906125249190613030565b60015b6125cd57612533613ba6565b806308c379a01415612590575061254861408d565b806125535750612592565b806040517f08c379a0000000000000000000000000000000000000000000000000000000008152600401612587919061358b565b60405180910390fd5b505b6040517f08c379a00000000000000000000000000000000000000000000000000000000081526004016125c4906135ad565b60405180910390fd5b63bc197c8160e01b7bffffffffffffffffffffffffffffffffffffffffffffffffffffffff1916817bffffffffffffffffffffffffffffffffffffffffffffffffffffffff191614612654576040517f08c379a000000000000000000000000000000000000000000000000000000000815260040161264b906135ed565b60405180910390fd5b505b505050505050565b60606000600167ffffffffffffffff8111156126a3577f4e487b7100000000000000000000000000000000000000000000000000000000600052604160045260246000fd5b6040519080825280602002602001820160405280156126d15781602001602082028036833780820191505090505b509050828160008151811061270f577f4e487b7100000000000000000000000000000000000000000000000000000000600052603260045260246000fd5b60200260200101818152505080915050919050565b6127438473ffffffffffffffffffffffffffffffffffffffff1661290b565b15612903578373ffffffffffffffffffffffffffffffffffffffff1663f23a6e6187878686866040518663ffffffff1660e01b81526004016127899594939291906134bd565b602060405180830381600087803b1580156127a357600080fd5b505af19250505080156127d457506040513d601f19601f820116820180604052508101906127d19190613030565b60015b61287a576127e0613ba6565b806308c379a0141561283d57506127f561408d565b80612800575061283f565b806040517f08c379a0000000000000000000000000000000000000000000000000000000008152600401612834919061358b565b60405180910390fd5b505b6040517f08c379a0000000000000000000000000000000000000000000000000000000008152600401612871906135ad565b60405180910390fd5b63f23a6e6160e01b7bffffffffffffffffffffffffffffffffffffffffffffffffffffffff1916817bffffffffffffffffffffffffffffffffffffffffffffffffffffffff191614612901576040517f08c379a00000000000000000000000000000000000000000000000000000000081526004016128f8906135ed565b60405180910390fd5b505b505050505050565b6000808273ffffffffffffffffffffffffffffffffffffffff163b119050919050565b82805461293a90613a6d565b90600052602060002090601f01602090048101928261295c57600085556129a3565b82601f1061297557805160ff19168380011785556129a3565b828001600101855582156129a3579182015b828111156129a2578251825591602001919060010190612987565b5b5090506129b091906129b4565b5090565b5b808211156129cd5760008160009055506001016129b5565b5090565b60006129e46129df84613836565b613811565b90508083825260208201905082856020860282011115612a0357600080fd5b60005b85811015612a335781612a198882612b25565b845260208401935060208301925050600181019050612a06565b5050509392505050565b6000612a50612a4b84613862565b613811565b90508083825260208201905082856020860282011115612a6f57600080fd5b60005b85811015612a9f5781612a858882612c21565b845260208401935060208301925050600181019050612a72565b5050509392505050565b6000612abc612ab78461388e565b613811565b905082815260208101848484011115612ad457600080fd5b612adf848285613a2b565b509392505050565b6000612afa612af5846138bf565b613811565b905082815260208101848484011115612b1257600080fd5b612b1d848285613a2b565b509392505050565b600081359050612b3481614123565b92915050565b600082601f830112612b4b57600080fd5b8135612b5b8482602086016129d1565b91505092915050565b600082601f830112612b7557600080fd5b8135612b85848260208601612a3d565b91505092915050565b600081359050612b9d8161413a565b92915050565b600081359050612bb281614151565b92915050565b600081519050612bc781614151565b92915050565b600082601f830112612bde57600080fd5b8135612bee848260208601612aa9565b91505092915050565b600082601f830112612c0857600080fd5b8135612c18848260208601612ae7565b91505092915050565b600081359050612c3081614168565b92915050565b600060208284031215612c4857600080fd5b6000612c5684828501612b25565b91505092915050565b60008060408385031215612c7257600080fd5b6000612c8085828601612b25565b9250506020612c9185828601612b25565b9150509250929050565b600080600080600060a08688031215612cb357600080fd5b6000612cc188828901612b25565b9550506020612cd288828901612b25565b945050604086013567ffffffffffffffff811115612cef57600080fd5b612cfb88828901612b64565b935050606086013567ffffffffffffffff811115612d1857600080fd5b612d2488828901612b64565b925050608086013567ffffffffffffffff811115612d4157600080fd5b612d4d88828901612bcd565b9150509295509295909350565b600080600080600060a08688031215612d7257600080fd5b6000612d8088828901612b25565b9550506020612d9188828901612b25565b9450506040612da288828901612c21565b9350506060612db388828901612c21565b925050608086013567ffffffffffffffff811115612dd057600080fd5b612ddc88828901612bcd565b9150509295509295909350565b600080600060608486031215612dfe57600080fd5b6000612e0c86828701612b25565b935050602084013567ffffffffffffffff811115612e2957600080fd5b612e3586828701612b64565b925050604084013567ffffffffffffffff811115612e5257600080fd5b612e5e86828701612b64565b9150509250925092565b60008060408385031215612e7b57600080fd5b6000612e8985828601612b25565b9250506020612e9a85828601612b8e565b9150509250929050565b60008060408385031215612eb757600080fd5b6000612ec585828601612b25565b9250506020612ed685828601612c21565b9150509250929050565b600080600060608486031215612ef557600080fd5b6000612f0386828701612b25565b9350506020612f1486828701612c21565b9250506040612f2586828701612c21565b9150509250925092565b60008060408385031215612f4257600080fd5b600083013567ffffffffffffffff811115612f5c57600080fd5b612f6885828601612b3a565b925050602083013567ffffffffffffffff811115612f8557600080fd5b612f9185828601612b64565b9150509250929050565b60008060408385031215612fae57600080fd5b600083013567ffffffffffffffff811115612fc857600080fd5b612fd485828601612b64565b925050602083013567ffffffffffffffff811115612ff157600080fd5b612ffd85828601612b64565b9150509250929050565b60006020828403121561301957600080fd5b600061302784828501612ba3565b91505092915050565b60006020828403121561304257600080fd5b600061305084828501612bb8565b91505092915050565b60006020828403121561306b57600080fd5b600082013567ffffffffffffffff81111561308557600080fd5b61309184828501612bf7565b91505092915050565b6000602082840312156130ac57600080fd5b60006130ba84828501612c21565b91505092915050565b60006130cf838361341c565b60208301905092915050565b6130e4816139b7565b82525050565b60006130f582613900565b6130ff818561392e565b935061310a836138f0565b8060005b8381101561313b57815161312288826130c3565b975061312d83613921565b92505060018101905061310e565b5085935050505092915050565b613151816139c9565b82525050565b60006131628261390b565b61316c818561393f565b935061317c818560208601613a3a565b61318581613bc8565b840191505092915050565b600061319b82613916565b6131a58185613950565b93506131b5818560208601613a3a565b6131be81613bc8565b840191505092915050565b60006131d6603483613950565b91506131e182613be6565b604082019050919050565b60006131f9602f83613950565b915061320482613c35565b604082019050919050565b600061321c602883613950565b915061322782613c84565b604082019050919050565b600061323f602683613950565b915061324a82613cd3565b604082019050919050565b6000613262600f83613950565b915061326d82613d22565b602082019050919050565b6000613285602483613950565b915061329082613d4b565b604082019050919050565b60006132a8602a83613950565b91506132b382613d9a565b604082019050919050565b60006132cb601683613950565b91506132d682613de9565b602082019050919050565b60006132ee602583613950565b91506132f982613e12565b604082019050919050565b6000613311602383613950565b915061331c82613e61565b604082019050919050565b6000613334602a83613950565b915061333f82613eb0565b604082019050919050565b6000613357602083613950565b915061336282613eff565b602082019050919050565b600061337a602983613950565b915061338582613f28565b604082019050919050565b600061339d602983613950565b91506133a882613f77565b604082019050919050565b60006133c0602883613950565b91506133cb82613fc6565b604082019050919050565b60006133e3602183613950565b91506133ee82614015565b604082019050919050565b6000613406600c83613950565b915061341182614064565b602082019050919050565b61342581613a21565b82525050565b61343481613a21565b82525050565b600060208201905061344f60008301846130db565b92915050565b600060a08201905061346a60008301886130db565b61347760208301876130db565b818103604083015261348981866130ea565b9050818103606083015261349d81856130ea565b905081810360808301526134b18184613157565b90509695505050505050565b600060a0820190506134d260008301886130db565b6134df60208301876130db565b6134ec604083018661342b565b6134f9606083018561342b565b818103608083015261350b8184613157565b90509695505050505050565b6000602082019050818103600083015261353181846130ea565b905092915050565b6000604082019050818103600083015261355381856130ea565b9050818103602083015261356781846130ea565b90509392505050565b60006020820190506135856000830184613148565b92915050565b600060208201905081810360008301526135a58184613190565b905092915050565b600060208201905081810360008301526135c6816131c9565b9050919050565b600060208201905081810360008301526135e6816131ec565b9050919050565b600060208201905081810360008301526136068161320f565b9050919050565b6000602082019050818103600083015261362681613232565b9050919050565b6000602082019050818103600083015261364681613255565b9050919050565b6000602082019050818103600083015261366681613278565b9050919050565b600060208201905081810360008301526136868161329b565b9050919050565b600060208201905081810360008301526136a6816132be565b9050919050565b600060208201905081810360008301526136c6816132e1565b9050919050565b600060208201905081810360008301526136e681613304565b9050919050565b6000602082019050818103600083015261370681613327565b9050919050565b600060208201905081810360008301526137268161334a565b9050919050565b600060208201905081810360008301526137468161336d565b9050919050565b6000602082019050818103600083015261376681613390565b9050919050565b60006020820190508181036000830152613786816133b3565b9050919050565b600060208201905081810360008301526137a6816133d6565b9050919050565b600060208201905081810360008301526137c6816133f9565b9050919050565b60006020820190506137e2600083018461342b565b92915050565b60006040820190506137fd600083018561342b565b61380a602083018461342b565b9392505050565b600061381b61382c565b90506138278282613a9f565b919050565b6000604051905090565b600067ffffffffffffffff82111561385157613850613b77565b5b602082029050602081019050919050565b600067ffffffffffffffff82111561387d5761387c613b77565b5b602082029050602081019050919050565b600067ffffffffffffffff8211156138a9576138a8613b77565b5b6138b282613bc8565b9050602081019050919050565b600067ffffffffffffffff8211156138da576138d9613b77565b5b6138e382613bc8565b9050602081019050919050565b6000819050602082019050919050565b600081519050919050565b600081519050919050565b600081519050919050565b6000602082019050919050565b600082825260208201905092915050565b600082825260208201905092915050565b600082825260208201905092915050565b600061396c82613a21565b915061397783613a21565b9250827fffffffffffffffffffffffffffffffffffffffffffffffffffffffffffffffff038211156139ac576139ab613b19565b5b828201905092915050565b60006139c282613a01565b9050919050565b60008115159050919050565b60007fffffffff0000000000000000000000000000000000000000000000000000000082169050919050565b600073ffffffffffffffffffffffffffffffffffffffff82169050919050565b6000819050919050565b82818337600083830152505050565b60005b83811015613a58578082015181840152602081019050613a3d565b83811115613a67576000848401525b50505050565b60006002820490506001821680613a8557607f821691505b60208210811415613a9957613a98613b48565b5b50919050565b613aa882613bc8565b810181811067ffffffffffffffff82111715613ac757613ac6613b77565b5b80604052505050565b6000613adb82613a21565b91507fffffffffffffffffffffffffffffffffffffffffffffffffffffffffffffffff821415613b0e57613b0d613b19565b5b600182019050919050565b7f4e487b7100000000000000000000000000000000000000000000000000000000600052601160045260246000fd5b7f4e487b7100000000000000000000000000000000000000000000000000000000600052602260045260246000fd5b7f4e487b7100000000000000000000000000000000000000000000000000000000600052604160045260246000fd5b600060033d1115613bc55760046000803e613bc2600051613bd9565b90505b90565b6000601f19601f8301169050919050565b60008160e01c9050919050565b7f455243313135353a207472616e7366657220746f206e6f6e204552433131353560008201527f526563656976657220696d706c656d656e746572000000000000000000000000602082015250565b7f455243313135353a2063616c6c6572206973206e6f7420746f6b656e206f776e60008201527f6572206e6f7220617070726f7665640000000000000000000000000000000000602082015250565b7f455243313135353a204552433131353552656365697665722072656a6563746560008201527f6420746f6b656e73000000000000000000000000000000000000000000000000602082015250565b7f4f776e61626c653a206e6577206f776e657220697320746865207a65726f206160008201527f6464726573730000000000000000000000000000000000000000000000000000602082015250565b7f55524920616c7265616479207365740000000000000000000000000000000000600082015250565b7f455243313135353a206275726e20616d6f756e7420657863656564732062616c60008201527f616e636500000000000000000000000000000000000000000000000000000000602082015250565b7f455243313135353a2061646472657373207a65726f206973206e6f742061207660008201527f616c6964206f776e657200000000000000000000000000000000000000000000602082015250565b7f43616e6e6f74206265207a65726f206164647265737300000000000000000000600082015250565b7f455243313135353a207472616e7366657220746f20746865207a65726f20616460008201527f6472657373000000000000000000000000000000000000000000000000000000602082015250565b7f455243313135353a206275726e2066726f6d20746865207a65726f206164647260008201527f6573730000000000000000000000000000000000000000000000000000000000602082015250565b7f455243313135353a20696e73756666696369656e742062616c616e636520666f60008201527f72207472616e7366657200000000000000000000000000000000000000000000602082015250565b7f4f776e61626c653a2063616c6c6572206973206e6f7420746865206f776e6572600082015250565b7f455243313135353a2073657474696e6720617070726f76616c2073746174757360008201527f20666f722073656c660000000000000000000000000000000000000000000000602082015250565b7f455243313135353a206163636f756e747320616e6420696473206c656e67746860008201527f206d69736d617463680000000000000000000000000000000000000000000000602082015250565b7f455243313135353a2069647320616e6420616d6f756e7473206c656e6774682060008201527f6d69736d61746368000000000000000000000000000000000000000000000000602082015250565b7f455243313135353a206d696e7420746f20746865207a65726f2061646472657360008201527f7300000000000000000000000000000000000000000000000000000000000000602082015250565b7f4e6f74206f70657261746f720000000000000000000000000000000000000000600082015250565b600060443d101561409d57614120565b6140a561382c565b60043d036004823e80513d602482011167ffffffffffffffff821117156140cd575050614120565b808201805167ffffffffffffffff8111156140eb5750505050614120565b80602083010160043d038501811115614108575050505050614120565b61411782602001850186613a9f565b82955050505050505b90565b61412c816139b7565b811461413757600080fd5b50565b614143816139c9565b811461414e57600080fd5b50565b61415a816139d5565b811461416557600080fd5b50565b61417181613a21565b811461417c57600080fd5b5056fea2646970667358221220809ceecc55b6532107fd6e9537b963cc443eca7826c271721ca7502158f0405264736f6c63430008040033",
  "linkReferences": {},
  "deployedLinkReferences": {}
}